{
	"smart contract.sol": {
		"lottery": {
			"abi": [
				{
					"inputs": [],
					"stateMutability": "nonpayable",
					"type": "constructor"
				},
				{
					"inputs": [],
					"name": "enter",
					"outputs": [],
					"stateMutability": "payable",
					"type": "function"
				},
				{
					"inputs": [],
					"name": "getplayers",
					"outputs": [
						{
							"internalType": "address payable[]",
							"name": "",
							"type": "address[]"
						}
					],
					"stateMutability": "view",
					"type": "function"
				},
				{
					"inputs": [],
					"name": "manager",
					"outputs": [
						{
							"internalType": "address",
							"name": "",
							"type": "address"
						}
					],
					"stateMutability": "view",
					"type": "function"
				},
				{
					"inputs": [],
					"name": "pickWinner",
					"outputs": [],
					"stateMutability": "nonpayable",
					"type": "function"
				},
				{
					"inputs": [
						{
							"internalType": "uint256",
							"name": "",
							"type": "uint256"
						}
					],
					"name": "players",
					"outputs": [
						{
							"internalType": "address payable",
							"name": "",
							"type": "address"
						}
					],
					"stateMutability": "view",
					"type": "function"
				}
			],
			"devdoc": {
				"kind": "dev",
				"methods": {},
				"version": 1
			},
			"evm": {
				"assembly": "    /* \"smart contract.sol\":74:1482  contract lottery{... */\n  mstore(0x40, 0x80)\n    /* \"smart contract.sol\":168:222  constructor(){... */\n  callvalue\n  dup1\n  iszero\n  tag_1\n  jumpi\n  0x00\n  dup1\n  revert\ntag_1:\n  pop\n    /* \"smart contract.sol\":202:212  msg.sender */\n  caller\n    /* \"smart contract.sol\":192:199  manager */\n  0x00\n  dup1\n    /* \"smart contract.sol\":192:212  manager = msg.sender */\n  0x0100\n  exp\n  dup2\n  sload\n  dup2\n  0xffffffffffffffffffffffffffffffffffffffff\n  mul\n  not\n  and\n  swap1\n  dup4\n  0xffffffffffffffffffffffffffffffffffffffff\n  and\n  mul\n  or\n  swap1\n  sstore\n  pop\n    /* \"smart contract.sol\":74:1482  contract lottery{... */\n  dataSize(sub_0)\n  dup1\n  dataOffset(sub_0)\n  0x00\n  codecopy\n  0x00\n  return\nstop\n\nsub_0: assembly {\n        /* \"smart contract.sol\":74:1482  contract lottery{... */\n      mstore(0x40, 0x80)\n      jumpi(tag_1, lt(calldatasize, 0x04))\n      shr(0xe0, calldataload(0x00))\n      dup1\n      0x481c6a75\n      eq\n      tag_2\n      jumpi\n      dup1\n      0x5d495aea\n      eq\n      tag_3\n      jumpi\n      dup1\n      0xe97dcb62\n      eq\n      tag_4\n      jumpi\n      dup1\n      0xecb3db52\n      eq\n      tag_5\n      jumpi\n      dup1\n      0xf71d96cb\n      eq\n      tag_6\n      jumpi\n    tag_1:\n      0x00\n      dup1\n      revert\n        /* \"smart contract.sol\":97:119  address public manager */\n    tag_2:\n      callvalue\n      dup1\n      iszero\n      tag_7\n      jumpi\n      0x00\n      dup1\n      revert\n    tag_7:\n      pop\n      tag_8\n      tag_9\n      jump\t// in\n    tag_8:\n      mload(0x40)\n      tag_10\n      swap2\n      swap1\n      tag_11\n      jump\t// in\n    tag_10:\n      mload(0x40)\n      dup1\n      swap2\n      sub\n      swap1\n      return\n        /* \"smart contract.sol\":962:1345  function pickWinner() public{ // winner picker function ... */\n    tag_3:\n      callvalue\n      dup1\n      iszero\n      tag_12\n      jumpi\n      0x00\n      dup1\n      revert\n    tag_12:\n      pop\n      tag_13\n      tag_14\n      jump\t// in\n    tag_13:\n      stop\n        /* \"smart contract.sol\":453:782  function enter() payable  public {... */\n    tag_4:\n      tag_15\n      tag_16\n      jump\t// in\n    tag_15:\n      stop\n        /* \"smart contract.sol\":1353:1467  function getplayers() view public returns (address payable[] memory ){... */\n    tag_5:\n      callvalue\n      dup1\n      iszero\n      tag_17\n      jumpi\n      0x00\n      dup1\n      revert\n    tag_17:\n      pop\n      tag_18\n      tag_19\n      jump\t// in\n    tag_18:\n      mload(0x40)\n      tag_20\n      swap2\n      swap1\n      tag_21\n      jump\t// in\n    tag_20:\n      mload(0x40)\n      dup1\n      swap2\n      sub\n      swap1\n      return\n        /* \"smart contract.sol\":127:159  address payable[] public players */\n    tag_6:\n      callvalue\n      dup1\n      iszero\n      tag_22\n      jumpi\n      0x00\n      dup1\n      revert\n    tag_22:\n      pop\n      tag_23\n      0x04\n      dup1\n      calldatasize\n      sub\n      dup2\n      add\n      swap1\n      tag_24\n      swap2\n      swap1\n      tag_25\n      jump\t// in\n    tag_24:\n      tag_26\n      jump\t// in\n    tag_23:\n      mload(0x40)\n      tag_27\n      swap2\n      swap1\n      tag_28\n      jump\t// in\n    tag_27:\n      mload(0x40)\n      dup1\n      swap2\n      sub\n      swap1\n      return\n        /* \"smart contract.sol\":97:119  address public manager */\n    tag_9:\n      0x00\n      dup1\n      sload\n      swap1\n      0x0100\n      exp\n      swap1\n      div\n      0xffffffffffffffffffffffffffffffffffffffff\n      and\n      dup2\n      jump\t// out\n        /* \"smart contract.sol\":962:1345  function pickWinner() public{ // winner picker function ... */\n    tag_14:\n        /* \"smart contract.sol\":1050:1057  manager */\n      0x00\n      dup1\n      sload\n      swap1\n      0x0100\n      exp\n      swap1\n      div\n      0xffffffffffffffffffffffffffffffffffffffff\n      and\n        /* \"smart contract.sol\":1036:1057  msg.sender == manager */\n      0xffffffffffffffffffffffffffffffffffffffff\n      and\n        /* \"smart contract.sol\":1036:1046  msg.sender */\n      caller\n        /* \"smart contract.sol\":1036:1057  msg.sender == manager */\n      0xffffffffffffffffffffffffffffffffffffffff\n      and\n      eq\n        /* \"smart contract.sol\":1028:1093  require(msg.sender == manager,\"only manager can pick the winner\") */\n      tag_30\n      jumpi\n      mload(0x40)\n      0x08c379a000000000000000000000000000000000000000000000000000000000\n      dup2\n      mstore\n      0x04\n      add\n      tag_31\n      swap1\n      tag_32\n      jump\t// in\n    tag_31:\n      mload(0x40)\n      dup1\n      swap2\n      sub\n      swap1\n      revert\n    tag_30:\n        /* \"smart contract.sol\":1104:1114  uint index */\n      0x00\n        /* \"smart contract.sol\":1131:1138  players */\n      0x01\n        /* \"smart contract.sol\":1131:1145  players.length */\n      dup1\n      sload\n      swap1\n      pop\n        /* \"smart contract.sol\":1117:1130  randonumber() */\n      tag_33\n        /* \"smart contract.sol\":1117:1128  randonumber */\n      tag_34\n        /* \"smart contract.sol\":1117:1130  randonumber() */\n      jump\t// in\n    tag_33:\n        /* \"smart contract.sol\":1117:1145  randonumber()%players.length */\n      tag_35\n      swap2\n      swap1\n      tag_36\n      jump\t// in\n    tag_35:\n        /* \"smart contract.sol\":1104:1145  uint index = randonumber()%players.length */\n      swap1\n      pop\n        /* \"smart contract.sol\":1180:1203  address contractAddress */\n      0x00\n        /* \"smart contract.sol\":1214:1218  this */\n      address\n        /* \"smart contract.sol\":1180:1219  address contractAddress = address(this) */\n      swap1\n      pop\n        /* \"smart contract.sol\":1231:1238  players */\n      0x01\n        /* \"smart contract.sol\":1239:1244  index */\n      dup3\n        /* \"smart contract.sol\":1231:1245  players[index] */\n      dup2\n      sload\n      dup2\n      lt\n      tag_37\n      jumpi\n      tag_38\n      tag_39\n      jump\t// in\n    tag_38:\n    tag_37:\n      swap1\n      0x00\n      mstore\n      keccak256(0x00, 0x20)\n      add\n      0x00\n      swap1\n      sload\n      swap1\n      0x0100\n      exp\n      swap1\n      div\n      0xffffffffffffffffffffffffffffffffffffffff\n      and\n        /* \"smart contract.sol\":1231:1254  players[index].transfer */\n      0xffffffffffffffffffffffffffffffffffffffff\n      and\n        /* \"smart contract.sol\":1231:1279  players[index].transfer(contractAddress.balance) */\n      0x08fc\n        /* \"smart contract.sol\":1255:1270  contractAddress */\n      dup3\n        /* \"smart contract.sol\":1255:1278  contractAddress.balance */\n      0xffffffffffffffffffffffffffffffffffffffff\n      and\n      balance\n        /* \"smart contract.sol\":1231:1279  players[index].transfer(contractAddress.balance) */\n      swap1\n      dup2\n      iszero\n      mul\n      swap1\n      mload(0x40)\n      0x00\n      mload(0x40)\n      dup1\n      dup4\n      sub\n      dup2\n      dup6\n      dup9\n      dup9\n      call\n      swap4\n      pop\n      pop\n      pop\n      pop\n      iszero\n      dup1\n      iszero\n      tag_42\n      jumpi\n      returndatasize\n      0x00\n      dup1\n      returndatacopy\n      revert(0x00, returndatasize)\n    tag_42:\n      pop\n        /* \"smart contract.sol\":1322:1323  0 */\n      0x00\n        /* \"smart contract.sol\":1300:1324  new address payable[](0) */\n      0xffffffffffffffff\n      dup2\n      gt\n      iszero\n      tag_43\n      jumpi\n      tag_44\n      tag_45\n      jump\t// in\n    tag_44:\n    tag_43:\n      mload(0x40)\n      swap1\n      dup1\n      dup3\n      mstore\n      dup1\n      0x20\n      mul\n      0x20\n      add\n      dup3\n      add\n      0x40\n      mstore\n      dup1\n      iszero\n      tag_46\n      jumpi\n      dup2\n      0x20\n      add\n      0x20\n      dup3\n      mul\n      dup1\n      calldatasize\n      dup4\n      calldatacopy\n      dup1\n      dup3\n      add\n      swap2\n      pop\n      pop\n      swap1\n      pop\n    tag_46:\n      pop\n        /* \"smart contract.sol\":1290:1297  players */\n      0x01\n        /* \"smart contract.sol\":1290:1324  players = new address payable[](0) */\n      swap1\n      dup1\n      mload\n      swap1\n      0x20\n      add\n      swap1\n      tag_47\n      swap3\n      swap2\n      swap1\n      tag_48\n      jump\t// in\n    tag_47:\n      pop\n        /* \"smart contract.sol\":990:1345  { // winner picker function ... */\n      pop\n      pop\n        /* \"smart contract.sol\":962:1345  function pickWinner() public{ // winner picker function ... */\n      jump\t// out\n        /* \"smart contract.sol\":453:782  function enter() payable  public {... */\n    tag_16:\n        /* \"smart contract.sol\":517:524  manager */\n      0x00\n      dup1\n      sload\n      swap1\n      0x0100\n      exp\n      swap1\n      div\n      0xffffffffffffffffffffffffffffffffffffffff\n      and\n        /* \"smart contract.sol\":505:524  msg.sender!=manager */\n      0xffffffffffffffffffffffffffffffffffffffff\n      and\n        /* \"smart contract.sol\":505:515  msg.sender */\n      caller\n        /* \"smart contract.sol\":505:524  msg.sender!=manager */\n      0xffffffffffffffffffffffffffffffffffffffff\n      and\n      sub\n        /* \"smart contract.sol\":497:549  require(msg.sender!=manager,\"Manager cannot enter\" ) */\n      tag_50\n      jumpi\n      mload(0x40)\n      0x08c379a000000000000000000000000000000000000000000000000000000000\n      dup2\n      mstore\n      0x04\n      add\n      tag_51\n      swap1\n      tag_52\n      jump\t// in\n    tag_51:\n      mload(0x40)\n      dup1\n      swap2\n      sub\n      swap1\n      revert\n    tag_50:\n        /* \"smart contract.sol\":618:623  false */\n      0x00\n        /* \"smart contract.sol\":599:623  alreadyEntered()== false */\n      iszero\n      iszero\n        /* \"smart contract.sol\":599:615  alreadyEntered() */\n      tag_53\n        /* \"smart contract.sol\":599:613  alreadyEntered */\n      tag_54\n        /* \"smart contract.sol\":599:615  alreadyEntered() */\n      jump\t// in\n    tag_53:\n        /* \"smart contract.sol\":599:623  alreadyEntered()== false */\n      iszero\n      iszero\n      eq\n        /* \"smart contract.sol\":591:649  require(alreadyEntered()== false,\"Player already entered\") */\n      tag_55\n      jumpi\n      mload(0x40)\n      0x08c379a000000000000000000000000000000000000000000000000000000000\n      dup2\n      mstore\n      0x04\n      add\n      tag_56\n      swap1\n      tag_57\n      jump\t// in\n    tag_56:\n      mload(0x40)\n      dup1\n      swap2\n      sub\n      swap1\n      revert\n    tag_55:\n        /* \"smart contract.sol\":696:703  1 ether */\n      0x0de0b6b3a7640000\n        /* \"smart contract.sol\":684:693  msg.value */\n      callvalue\n        /* \"smart contract.sol\":684:703  msg.value >=1 ether */\n      lt\n      iszero\n        /* \"smart contract.sol\":676:728  require(msg.value >=1 ether,\"Minimum must be payed\") */\n      tag_58\n      jumpi\n      mload(0x40)\n      0x08c379a000000000000000000000000000000000000000000000000000000000\n      dup2\n      mstore\n      0x04\n      add\n      tag_59\n      swap1\n      tag_60\n      jump\t// in\n    tag_59:\n      mload(0x40)\n      dup1\n      swap2\n      sub\n      swap1\n      revert\n    tag_58:\n        /* \"smart contract.sol\":739:746  players */\n      0x01\n        /* \"smart contract.sol\":760:770  msg.sender */\n      caller\n        /* \"smart contract.sol\":739:772  players.push(payable(msg.sender)) */\n      swap1\n      dup1\n      0x01\n      dup2\n      sload\n      add\n      dup1\n      dup3\n      sstore\n      dup1\n      swap2\n      pop\n      pop\n      0x01\n      swap1\n      sub\n      swap1\n      0x00\n      mstore\n      keccak256(0x00, 0x20)\n      add\n      0x00\n      swap1\n      swap2\n      swap1\n      swap2\n      swap1\n      swap2\n      0x0100\n      exp\n      dup2\n      sload\n      dup2\n      0xffffffffffffffffffffffffffffffffffffffff\n      mul\n      not\n      and\n      swap1\n      dup4\n      0xffffffffffffffffffffffffffffffffffffffff\n      and\n      mul\n      or\n      swap1\n      sstore\n      pop\n        /* \"smart contract.sol\":453:782  function enter() payable  public {... */\n      jump\t// out\n        /* \"smart contract.sol\":1353:1467  function getplayers() view public returns (address payable[] memory ){... */\n    tag_19:\n        /* \"smart contract.sol\":1396:1420  address payable[] memory */\n      0x60\n        /* \"smart contract.sol\":1442:1449  players */\n      0x01\n        /* \"smart contract.sol\":1435:1449  return players */\n      dup1\n      sload\n      dup1\n      0x20\n      mul\n      0x20\n      add\n      mload(0x40)\n      swap1\n      dup2\n      add\n      0x40\n      mstore\n      dup1\n      swap3\n      swap2\n      swap1\n      dup2\n      dup2\n      mstore\n      0x20\n      add\n      dup3\n      dup1\n      sload\n      dup1\n      iszero\n      tag_63\n      jumpi\n      0x20\n      mul\n      dup3\n      add\n      swap2\n      swap1\n      0x00\n      mstore\n      keccak256(0x00, 0x20)\n      swap1\n    tag_64:\n      dup2\n      0x00\n      swap1\n      sload\n      swap1\n      0x0100\n      exp\n      swap1\n      div\n      0xffffffffffffffffffffffffffffffffffffffff\n      and\n      0xffffffffffffffffffffffffffffffffffffffff\n      and\n      dup2\n      mstore\n      0x20\n      add\n      swap1\n      0x01\n      add\n      swap1\n      dup1\n      dup4\n      gt\n      tag_64\n      jumpi\n    tag_63:\n      pop\n      pop\n      pop\n      pop\n      pop\n      swap1\n      pop\n        /* \"smart contract.sol\":1353:1467  function getplayers() view public returns (address payable[] memory ){... */\n      swap1\n      jump\t// out\n        /* \"smart contract.sol\":127:159  address payable[] public players */\n    tag_26:\n      0x01\n      dup2\n      dup2\n      sload\n      dup2\n      lt\n      tag_65\n      jumpi\n      0x00\n      dup1\n      revert\n    tag_65:\n      swap1\n      0x00\n      mstore\n      keccak256(0x00, 0x20)\n      add\n      0x00\n      swap2\n      pop\n      sload\n      swap1\n      0x0100\n      exp\n      swap1\n      div\n      0xffffffffffffffffffffffffffffffffffffffff\n      and\n      dup2\n      jump\t// out\n        /* \"smart contract.sol\":790:954  function randonumber() view private returns(uint) { // random number ... */\n    tag_34:\n        /* \"smart contract.sol\":834:838  uint */\n      0x00\n        /* \"smart contract.sol\":882:945  sha256(abi.encodePacked(block.difficulty,block.number,players)) */\n      0x02\n        /* \"smart contract.sol\":906:922  block.difficulty */\n      difficulty\n        /* \"smart contract.sol\":923:935  block.number */\n      number\n        /* \"smart contract.sol\":936:943  players */\n      0x01\n        /* \"smart contract.sol\":889:944  abi.encodePacked(block.difficulty,block.number,players) */\n      add(0x20, mload(0x40))\n      tag_68\n      swap4\n      swap3\n      swap2\n      swap1\n      tag_69\n      jump\t// in\n    tag_68:\n      mload(0x40)\n      0x20\n      dup2\n      dup4\n      sub\n      sub\n      dup2\n      mstore\n      swap1\n      0x40\n      mstore\n        /* \"smart contract.sol\":882:945  sha256(abi.encodePacked(block.difficulty,block.number,players)) */\n      mload(0x40)\n      tag_70\n      swap2\n      swap1\n      tag_71\n      jump\t// in\n    tag_70:\n      0x20\n      mload(0x40)\n      dup1\n      dup4\n      sub\n      dup2\n      dup6\n      gas\n      staticcall\n      iszero\n      dup1\n      iszero\n      tag_73\n      jumpi\n      returndatasize\n      0x00\n      dup1\n      returndatacopy\n      revert(0x00, returndatasize)\n    tag_73:\n      pop\n      pop\n      pop\n      mload(0x40)\n      returndatasize\n      not(0x1f)\n      0x1f\n      dup3\n      add\n      and\n      dup3\n      add\n      dup1\n      0x40\n      mstore\n      pop\n      dup2\n      add\n      swap1\n      tag_74\n      swap2\n      swap1\n      tag_75\n      jump\t// in\n    tag_74:\n        /* \"smart contract.sol\":877:946  uint(sha256(abi.encodePacked(block.difficulty,block.number,players))) */\n      0x00\n      shr\n        /* \"smart contract.sol\":870:946  return uint(sha256(abi.encodePacked(block.difficulty,block.number,players))) */\n      swap1\n      pop\n        /* \"smart contract.sol\":790:954  function randonumber() view private returns(uint) { // random number ... */\n      swap1\n      jump\t// out\n        /* \"smart contract.sol\":230:445  function alreadyEntered() view private returns (bool){... */\n    tag_54:\n        /* \"smart contract.sol\":278:282  bool */\n      0x00\n        /* \"smart contract.sol\":298:304  uint i */\n      dup1\n        /* \"smart contract.sol\":307:308  0 */\n      0x00\n        /* \"smart contract.sol\":298:308  uint i = 0 */\n      swap1\n      pop\n        /* \"smart contract.sol\":294:411  for(uint i = 0 ; i<players.length;i++){... */\n    tag_77:\n        /* \"smart contract.sol\":313:320  players */\n      0x01\n        /* \"smart contract.sol\":313:327  players.length */\n      dup1\n      sload\n      swap1\n      pop\n        /* \"smart contract.sol\":311:312  i */\n      dup2\n        /* \"smart contract.sol\":311:327  i<players.length */\n      lt\n        /* \"smart contract.sol\":294:411  for(uint i = 0 ; i<players.length;i++){... */\n      iszero\n      tag_78\n      jumpi\n        /* \"smart contract.sol\":362:372  msg.sender */\n      caller\n        /* \"smart contract.sol\":350:372  players[i]==msg.sender */\n      0xffffffffffffffffffffffffffffffffffffffff\n      and\n        /* \"smart contract.sol\":350:357  players */\n      0x01\n        /* \"smart contract.sol\":358:359  i */\n      dup3\n        /* \"smart contract.sol\":350:360  players[i] */\n      dup2\n      sload\n      dup2\n      lt\n      tag_80\n      jumpi\n      tag_81\n      tag_39\n      jump\t// in\n    tag_81:\n    tag_80:\n      swap1\n      0x00\n      mstore\n      keccak256(0x00, 0x20)\n      add\n      0x00\n      swap1\n      sload\n      swap1\n      0x0100\n      exp\n      swap1\n      div\n      0xffffffffffffffffffffffffffffffffffffffff\n      and\n        /* \"smart contract.sol\":350:372  players[i]==msg.sender */\n      0xffffffffffffffffffffffffffffffffffffffff\n      and\n      sub\n        /* \"smart contract.sol\":347:399  if(players[i]==msg.sender)... */\n      tag_83\n      jumpi\n        /* \"smart contract.sol\":395:399  true */\n      0x01\n        /* \"smart contract.sol\":387:399  return  true */\n      swap2\n      pop\n      pop\n      jump(tag_76)\n        /* \"smart contract.sol\":347:399  if(players[i]==msg.sender)... */\n    tag_83:\n        /* \"smart contract.sol\":328:331  i++ */\n      dup1\n      dup1\n      tag_84\n      swap1\n      tag_85\n      jump\t// in\n    tag_84:\n      swap2\n      pop\n      pop\n        /* \"smart contract.sol\":294:411  for(uint i = 0 ; i<players.length;i++){... */\n      jump(tag_77)\n    tag_78:\n      pop\n        /* \"smart contract.sol\":428:433  false */\n      0x00\n        /* \"smart contract.sol\":421:433  return false */\n      swap1\n      pop\n        /* \"smart contract.sol\":230:445  function alreadyEntered() view private returns (bool){... */\n    tag_76:\n      swap1\n      jump\t// out\n    tag_48:\n      dup3\n      dup1\n      sload\n      dup3\n      dup3\n      sstore\n      swap1\n      0x00\n      mstore\n      keccak256(0x00, 0x20)\n      swap1\n      dup2\n      add\n      swap3\n      dup3\n      iszero\n      tag_86\n      jumpi\n      swap2\n      0x20\n      mul\n      dup3\n      add\n    tag_87:\n      dup3\n      dup2\n      gt\n      iszero\n      tag_88\n      jumpi\n      dup3\n      mload\n      dup3\n      exp(0x0100, 0x00)\n      dup2\n      sload\n      dup2\n      0xffffffffffffffffffffffffffffffffffffffff\n      mul\n      not\n      and\n      swap1\n      dup4\n      0xffffffffffffffffffffffffffffffffffffffff\n      and\n      mul\n      or\n      swap1\n      sstore\n      pop\n      swap2\n      0x20\n      add\n      swap2\n      swap1\n      0x01\n      add\n      swap1\n      jump(tag_87)\n    tag_88:\n    tag_86:\n      pop\n      swap1\n      pop\n      tag_89\n      swap2\n      swap1\n      tag_90\n      jump\t// in\n    tag_89:\n      pop\n      swap1\n      jump\t// out\n    tag_90:\n    tag_91:\n      dup1\n      dup3\n      gt\n      iszero\n      tag_92\n      jumpi\n      0x00\n      dup2\n      0x00\n      swap1\n      sstore\n      pop\n      0x01\n      add\n      jump(tag_91)\n    tag_92:\n      pop\n      swap1\n      jump\t// out\n        /* \"#utility.yul\":7:133   */\n    tag_93:\n        /* \"#utility.yul\":44:51   */\n      0x00\n        /* \"#utility.yul\":84:126   */\n      0xffffffffffffffffffffffffffffffffffffffff\n        /* \"#utility.yul\":77:82   */\n      dup3\n        /* \"#utility.yul\":73:127   */\n      and\n        /* \"#utility.yul\":62:127   */\n      swap1\n      pop\n        /* \"#utility.yul\":7:133   */\n      swap2\n      swap1\n      pop\n      jump\t// out\n        /* \"#utility.yul\":139:235   */\n    tag_94:\n        /* \"#utility.yul\":176:183   */\n      0x00\n        /* \"#utility.yul\":205:229   */\n      tag_145\n        /* \"#utility.yul\":223:228   */\n      dup3\n        /* \"#utility.yul\":205:229   */\n      tag_93\n      jump\t// in\n    tag_145:\n        /* \"#utility.yul\":194:229   */\n      swap1\n      pop\n        /* \"#utility.yul\":139:235   */\n      swap2\n      swap1\n      pop\n      jump\t// out\n        /* \"#utility.yul\":241:359   */\n    tag_95:\n        /* \"#utility.yul\":328:352   */\n      tag_147\n        /* \"#utility.yul\":346:351   */\n      dup2\n        /* \"#utility.yul\":328:352   */\n      tag_94\n      jump\t// in\n    tag_147:\n        /* \"#utility.yul\":323:326   */\n      dup3\n        /* \"#utility.yul\":316:353   */\n      mstore\n        /* \"#utility.yul\":241:359   */\n      pop\n      pop\n      jump\t// out\n        /* \"#utility.yul\":365:587   */\n    tag_11:\n        /* \"#utility.yul\":458:462   */\n      0x00\n        /* \"#utility.yul\":496:498   */\n      0x20\n        /* \"#utility.yul\":485:494   */\n      dup3\n        /* \"#utility.yul\":481:499   */\n      add\n        /* \"#utility.yul\":473:499   */\n      swap1\n      pop\n        /* \"#utility.yul\":509:580   */\n      tag_149\n        /* \"#utility.yul\":577:578   */\n      0x00\n        /* \"#utility.yul\":566:575   */\n      dup4\n        /* \"#utility.yul\":562:579   */\n      add\n        /* \"#utility.yul\":553:559   */\n      dup5\n        /* \"#utility.yul\":509:580   */\n      tag_95\n      jump\t// in\n    tag_149:\n        /* \"#utility.yul\":365:587   */\n      swap3\n      swap2\n      pop\n      pop\n      jump\t// out\n        /* \"#utility.yul\":593:715   */\n    tag_96:\n        /* \"#utility.yul\":668:674   */\n      0x00\n        /* \"#utility.yul\":702:707   */\n      dup2\n        /* \"#utility.yul\":696:708   */\n      mload\n        /* \"#utility.yul\":686:708   */\n      swap1\n      pop\n        /* \"#utility.yul\":593:715   */\n      swap2\n      swap1\n      pop\n      jump\t// out\n        /* \"#utility.yul\":721:913   */\n    tag_97:\n        /* \"#utility.yul\":828:839   */\n      0x00\n        /* \"#utility.yul\":862:868   */\n      dup3\n        /* \"#utility.yul\":857:860   */\n      dup3\n        /* \"#utility.yul\":850:869   */\n      mstore\n        /* \"#utility.yul\":902:906   */\n      0x20\n        /* \"#utility.yul\":897:900   */\n      dup3\n        /* \"#utility.yul\":893:907   */\n      add\n        /* \"#utility.yul\":878:907   */\n      swap1\n      pop\n        /* \"#utility.yul\":721:913   */\n      swap3\n      swap2\n      pop\n      pop\n      jump\t// out\n        /* \"#utility.yul\":919:1059   */\n    tag_98:\n        /* \"#utility.yul\":994:998   */\n      0x00\n        /* \"#utility.yul\":1017:1020   */\n      dup2\n        /* \"#utility.yul\":1009:1020   */\n      swap1\n      pop\n        /* \"#utility.yul\":1047:1051   */\n      0x20\n        /* \"#utility.yul\":1042:1045   */\n      dup3\n        /* \"#utility.yul\":1038:1052   */\n      add\n        /* \"#utility.yul\":1030:1052   */\n      swap1\n      pop\n        /* \"#utility.yul\":919:1059   */\n      swap2\n      swap1\n      pop\n      jump\t// out\n        /* \"#utility.yul\":1065:1169   */\n    tag_99:\n        /* \"#utility.yul\":1110:1117   */\n      0x00\n        /* \"#utility.yul\":1139:1163   */\n      tag_154\n        /* \"#utility.yul\":1157:1162   */\n      dup3\n        /* \"#utility.yul\":1139:1163   */\n      tag_93\n      jump\t// in\n    tag_154:\n        /* \"#utility.yul\":1128:1163   */\n      swap1\n      pop\n        /* \"#utility.yul\":1065:1169   */\n      swap2\n      swap1\n      pop\n      jump\t// out\n        /* \"#utility.yul\":1175:1307   */\n    tag_100:\n        /* \"#utility.yul\":1268:1300   */\n      tag_156\n        /* \"#utility.yul\":1294:1299   */\n      dup2\n        /* \"#utility.yul\":1268:1300   */\n      tag_99\n      jump\t// in\n    tag_156:\n        /* \"#utility.yul\":1263:1266   */\n      dup3\n        /* \"#utility.yul\":1256:1301   */\n      mstore\n        /* \"#utility.yul\":1175:1307   */\n      pop\n      pop\n      jump\t// out\n        /* \"#utility.yul\":1313:1524   */\n    tag_101:\n        /* \"#utility.yul\":1398:1408   */\n      0x00\n        /* \"#utility.yul\":1419:1481   */\n      tag_158\n        /* \"#utility.yul\":1477:1480   */\n      dup4\n        /* \"#utility.yul\":1469:1475   */\n      dup4\n        /* \"#utility.yul\":1419:1481   */\n      tag_100\n      jump\t// in\n    tag_158:\n        /* \"#utility.yul\":1513:1517   */\n      0x20\n        /* \"#utility.yul\":1508:1511   */\n      dup4\n        /* \"#utility.yul\":1504:1518   */\n      add\n        /* \"#utility.yul\":1490:1518   */\n      swap1\n      pop\n        /* \"#utility.yul\":1313:1524   */\n      swap3\n      swap2\n      pop\n      pop\n      jump\t// out\n        /* \"#utility.yul\":1530:1651   */\n    tag_102:\n        /* \"#utility.yul\":1608:1612   */\n      0x00\n        /* \"#utility.yul\":1640:1644   */\n      0x20\n        /* \"#utility.yul\":1635:1638   */\n      dup3\n        /* \"#utility.yul\":1631:1645   */\n      add\n        /* \"#utility.yul\":1623:1645   */\n      swap1\n      pop\n        /* \"#utility.yul\":1530:1651   */\n      swap2\n      swap1\n      pop\n      jump\t// out\n        /* \"#utility.yul\":1703:2499   */\n    tag_103:\n        /* \"#utility.yul\":1838:1841   */\n      0x00\n        /* \"#utility.yul\":1867:1929   */\n      tag_161\n        /* \"#utility.yul\":1923:1928   */\n      dup3\n        /* \"#utility.yul\":1867:1929   */\n      tag_96\n      jump\t// in\n    tag_161:\n        /* \"#utility.yul\":1945:2039   */\n      tag_162\n        /* \"#utility.yul\":2032:2038   */\n      dup2\n        /* \"#utility.yul\":2027:2030   */\n      dup6\n        /* \"#utility.yul\":1945:2039   */\n      tag_97\n      jump\t// in\n    tag_162:\n        /* \"#utility.yul\":1938:2039   */\n      swap4\n      pop\n        /* \"#utility.yul\":2063:2127   */\n      tag_163\n        /* \"#utility.yul\":2121:2126   */\n      dup4\n        /* \"#utility.yul\":2063:2127   */\n      tag_98\n      jump\t// in\n    tag_163:\n        /* \"#utility.yul\":2150:2157   */\n      dup1\n        /* \"#utility.yul\":2181:2182   */\n      0x00\n        /* \"#utility.yul\":2166:2474   */\n    tag_164:\n        /* \"#utility.yul\":2191:2197   */\n      dup4\n        /* \"#utility.yul\":2188:2189   */\n      dup2\n        /* \"#utility.yul\":2185:2198   */\n      lt\n        /* \"#utility.yul\":2166:2474   */\n      iszero\n      tag_166\n      jumpi\n        /* \"#utility.yul\":2267:2273   */\n      dup2\n        /* \"#utility.yul\":2261:2274   */\n      mload\n        /* \"#utility.yul\":2294:2373   */\n      tag_167\n        /* \"#utility.yul\":2369:2372   */\n      dup9\n        /* \"#utility.yul\":2354:2367   */\n      dup3\n        /* \"#utility.yul\":2294:2373   */\n      tag_101\n      jump\t// in\n    tag_167:\n        /* \"#utility.yul\":2287:2373   */\n      swap8\n      pop\n        /* \"#utility.yul\":2396:2464   */\n      tag_168\n        /* \"#utility.yul\":2457:2463   */\n      dup4\n        /* \"#utility.yul\":2396:2464   */\n      tag_102\n      jump\t// in\n    tag_168:\n        /* \"#utility.yul\":2386:2464   */\n      swap3\n      pop\n        /* \"#utility.yul\":2226:2474   */\n      pop\n        /* \"#utility.yul\":2213:2214   */\n      0x01\n        /* \"#utility.yul\":2210:2211   */\n      dup2\n        /* \"#utility.yul\":2206:2215   */\n      add\n        /* \"#utility.yul\":2201:2215   */\n      swap1\n      pop\n        /* \"#utility.yul\":2166:2474   */\n      jump(tag_164)\n    tag_166:\n        /* \"#utility.yul\":2170:2184   */\n      pop\n        /* \"#utility.yul\":2490:2493   */\n      dup6\n        /* \"#utility.yul\":2483:2493   */\n      swap4\n      pop\n        /* \"#utility.yul\":1843:2499   */\n      pop\n      pop\n      pop\n        /* \"#utility.yul\":1703:2499   */\n      swap3\n      swap2\n      pop\n      pop\n      jump\t// out\n        /* \"#utility.yul\":2505:2910   */\n    tag_21:\n        /* \"#utility.yul\":2664:2668   */\n      0x00\n        /* \"#utility.yul\":2702:2704   */\n      0x20\n        /* \"#utility.yul\":2691:2700   */\n      dup3\n        /* \"#utility.yul\":2687:2705   */\n      add\n        /* \"#utility.yul\":2679:2705   */\n      swap1\n      pop\n        /* \"#utility.yul\":2751:2760   */\n      dup2\n        /* \"#utility.yul\":2745:2749   */\n      dup2\n        /* \"#utility.yul\":2741:2761   */\n      sub\n        /* \"#utility.yul\":2737:2738   */\n      0x00\n        /* \"#utility.yul\":2726:2735   */\n      dup4\n        /* \"#utility.yul\":2722:2739   */\n      add\n        /* \"#utility.yul\":2715:2762   */\n      mstore\n        /* \"#utility.yul\":2779:2903   */\n      tag_170\n        /* \"#utility.yul\":2898:2902   */\n      dup2\n        /* \"#utility.yul\":2889:2895   */\n      dup5\n        /* \"#utility.yul\":2779:2903   */\n      tag_103\n      jump\t// in\n    tag_170:\n        /* \"#utility.yul\":2771:2903   */\n      swap1\n      pop\n        /* \"#utility.yul\":2505:2910   */\n      swap3\n      swap2\n      pop\n      pop\n      jump\t// out\n        /* \"#utility.yul\":2997:3114   */\n    tag_105:\n        /* \"#utility.yul\":3106:3107   */\n      0x00\n        /* \"#utility.yul\":3103:3104   */\n      dup1\n        /* \"#utility.yul\":3096:3108   */\n      revert\n        /* \"#utility.yul\":3243:3320   */\n    tag_107:\n        /* \"#utility.yul\":3280:3287   */\n      0x00\n        /* \"#utility.yul\":3309:3314   */\n      dup2\n        /* \"#utility.yul\":3298:3314   */\n      swap1\n      pop\n        /* \"#utility.yul\":3243:3320   */\n      swap2\n      swap1\n      pop\n      jump\t// out\n        /* \"#utility.yul\":3326:3448   */\n    tag_108:\n        /* \"#utility.yul\":3399:3423   */\n      tag_176\n        /* \"#utility.yul\":3417:3422   */\n      dup2\n        /* \"#utility.yul\":3399:3423   */\n      tag_107\n      jump\t// in\n    tag_176:\n        /* \"#utility.yul\":3392:3397   */\n      dup2\n        /* \"#utility.yul\":3389:3424   */\n      eq\n        /* \"#utility.yul\":3379:3442   */\n      tag_177\n      jumpi\n        /* \"#utility.yul\":3438:3439   */\n      0x00\n        /* \"#utility.yul\":3435:3436   */\n      dup1\n        /* \"#utility.yul\":3428:3440   */\n      revert\n        /* \"#utility.yul\":3379:3442   */\n    tag_177:\n        /* \"#utility.yul\":3326:3448   */\n      pop\n      jump\t// out\n        /* \"#utility.yul\":3454:3593   */\n    tag_109:\n        /* \"#utility.yul\":3500:3505   */\n      0x00\n        /* \"#utility.yul\":3538:3544   */\n      dup2\n        /* \"#utility.yul\":3525:3545   */\n      calldataload\n        /* \"#utility.yul\":3516:3545   */\n      swap1\n      pop\n        /* \"#utility.yul\":3554:3587   */\n      tag_179\n        /* \"#utility.yul\":3581:3586   */\n      dup2\n        /* \"#utility.yul\":3554:3587   */\n      tag_108\n      jump\t// in\n    tag_179:\n        /* \"#utility.yul\":3454:3593   */\n      swap3\n      swap2\n      pop\n      pop\n      jump\t// out\n        /* \"#utility.yul\":3599:3928   */\n    tag_25:\n        /* \"#utility.yul\":3658:3664   */\n      0x00\n        /* \"#utility.yul\":3707:3709   */\n      0x20\n        /* \"#utility.yul\":3695:3704   */\n      dup3\n        /* \"#utility.yul\":3686:3693   */\n      dup5\n        /* \"#utility.yul\":3682:3705   */\n      sub\n        /* \"#utility.yul\":3678:3710   */\n      slt\n        /* \"#utility.yul\":3675:3794   */\n      iszero\n      tag_181\n      jumpi\n        /* \"#utility.yul\":3713:3792   */\n      tag_182\n      tag_105\n      jump\t// in\n    tag_182:\n        /* \"#utility.yul\":3675:3794   */\n    tag_181:\n        /* \"#utility.yul\":3833:3834   */\n      0x00\n        /* \"#utility.yul\":3858:3911   */\n      tag_183\n        /* \"#utility.yul\":3903:3910   */\n      dup5\n        /* \"#utility.yul\":3894:3900   */\n      dup3\n        /* \"#utility.yul\":3883:3892   */\n      dup6\n        /* \"#utility.yul\":3879:3901   */\n      add\n        /* \"#utility.yul\":3858:3911   */\n      tag_109\n      jump\t// in\n    tag_183:\n        /* \"#utility.yul\":3848:3911   */\n      swap2\n      pop\n        /* \"#utility.yul\":3804:3921   */\n      pop\n        /* \"#utility.yul\":3599:3928   */\n      swap3\n      swap2\n      pop\n      pop\n      jump\t// out\n        /* \"#utility.yul\":3934:4076   */\n    tag_110:\n        /* \"#utility.yul\":4037:4069   */\n      tag_185\n        /* \"#utility.yul\":4063:4068   */\n      dup2\n        /* \"#utility.yul\":4037:4069   */\n      tag_99\n      jump\t// in\n    tag_185:\n        /* \"#utility.yul\":4032:4035   */\n      dup3\n        /* \"#utility.yul\":4025:4070   */\n      mstore\n        /* \"#utility.yul\":3934:4076   */\n      pop\n      pop\n      jump\t// out\n        /* \"#utility.yul\":4082:4336   */\n    tag_28:\n        /* \"#utility.yul\":4191:4195   */\n      0x00\n        /* \"#utility.yul\":4229:4231   */\n      0x20\n        /* \"#utility.yul\":4218:4227   */\n      dup3\n        /* \"#utility.yul\":4214:4232   */\n      add\n        /* \"#utility.yul\":4206:4232   */\n      swap1\n      pop\n        /* \"#utility.yul\":4242:4329   */\n      tag_187\n        /* \"#utility.yul\":4326:4327   */\n      0x00\n        /* \"#utility.yul\":4315:4324   */\n      dup4\n        /* \"#utility.yul\":4311:4328   */\n      add\n        /* \"#utility.yul\":4302:4308   */\n      dup5\n        /* \"#utility.yul\":4242:4329   */\n      tag_110\n      jump\t// in\n    tag_187:\n        /* \"#utility.yul\":4082:4336   */\n      swap3\n      swap2\n      pop\n      pop\n      jump\t// out\n        /* \"#utility.yul\":4342:4511   */\n    tag_111:\n        /* \"#utility.yul\":4426:4437   */\n      0x00\n        /* \"#utility.yul\":4460:4466   */\n      dup3\n        /* \"#utility.yul\":4455:4458   */\n      dup3\n        /* \"#utility.yul\":4448:4467   */\n      mstore\n        /* \"#utility.yul\":4500:4504   */\n      0x20\n        /* \"#utility.yul\":4495:4498   */\n      dup3\n        /* \"#utility.yul\":4491:4505   */\n      add\n        /* \"#utility.yul\":4476:4505   */\n      swap1\n      pop\n        /* \"#utility.yul\":4342:4511   */\n      swap3\n      swap2\n      pop\n      pop\n      jump\t// out\n        /* \"#utility.yul\":4517:4699   */\n    tag_112:\n        /* \"#utility.yul\":4657:4691   */\n      0x6f6e6c79206d616e616765722063616e207069636b207468652077696e6e6572\n        /* \"#utility.yul\":4653:4654   */\n      0x00\n        /* \"#utility.yul\":4645:4651   */\n      dup3\n        /* \"#utility.yul\":4641:4655   */\n      add\n        /* \"#utility.yul\":4634:4692   */\n      mstore\n        /* \"#utility.yul\":4517:4699   */\n      pop\n      jump\t// out\n        /* \"#utility.yul\":4705:5071   */\n    tag_113:\n        /* \"#utility.yul\":4847:4850   */\n      0x00\n        /* \"#utility.yul\":4868:4935   */\n      tag_191\n        /* \"#utility.yul\":4932:4934   */\n      0x20\n        /* \"#utility.yul\":4927:4930   */\n      dup4\n        /* \"#utility.yul\":4868:4935   */\n      tag_111\n      jump\t// in\n    tag_191:\n        /* \"#utility.yul\":4861:4935   */\n      swap2\n      pop\n        /* \"#utility.yul\":4944:5037   */\n      tag_192\n        /* \"#utility.yul\":5033:5036   */\n      dup3\n        /* \"#utility.yul\":4944:5037   */\n      tag_112\n      jump\t// in\n    tag_192:\n        /* \"#utility.yul\":5062:5064   */\n      0x20\n        /* \"#utility.yul\":5057:5060   */\n      dup3\n        /* \"#utility.yul\":5053:5065   */\n      add\n        /* \"#utility.yul\":5046:5065   */\n      swap1\n      pop\n        /* \"#utility.yul\":4705:5071   */\n      swap2\n      swap1\n      pop\n      jump\t// out\n        /* \"#utility.yul\":5077:5496   */\n    tag_32:\n        /* \"#utility.yul\":5243:5247   */\n      0x00\n        /* \"#utility.yul\":5281:5283   */\n      0x20\n        /* \"#utility.yul\":5270:5279   */\n      dup3\n        /* \"#utility.yul\":5266:5284   */\n      add\n        /* \"#utility.yul\":5258:5284   */\n      swap1\n      pop\n        /* \"#utility.yul\":5330:5339   */\n      dup2\n        /* \"#utility.yul\":5324:5328   */\n      dup2\n        /* \"#utility.yul\":5320:5340   */\n      sub\n        /* \"#utility.yul\":5316:5317   */\n      0x00\n        /* \"#utility.yul\":5305:5314   */\n      dup4\n        /* \"#utility.yul\":5301:5318   */\n      add\n        /* \"#utility.yul\":5294:5341   */\n      mstore\n        /* \"#utility.yul\":5358:5489   */\n      tag_194\n        /* \"#utility.yul\":5484:5488   */\n      dup2\n        /* \"#utility.yul\":5358:5489   */\n      tag_113\n      jump\t// in\n    tag_194:\n        /* \"#utility.yul\":5350:5489   */\n      swap1\n      pop\n        /* \"#utility.yul\":5077:5496   */\n      swap2\n      swap1\n      pop\n      jump\t// out\n        /* \"#utility.yul\":5502:5682   */\n    tag_114:\n        /* \"#utility.yul\":5550:5627   */\n      0x4e487b7100000000000000000000000000000000000000000000000000000000\n        /* \"#utility.yul\":5547:5548   */\n      0x00\n        /* \"#utility.yul\":5540:5628   */\n      mstore\n        /* \"#utility.yul\":5647:5651   */\n      0x12\n        /* \"#utility.yul\":5644:5645   */\n      0x04\n        /* \"#utility.yul\":5637:5652   */\n      mstore\n        /* \"#utility.yul\":5671:5675   */\n      0x24\n        /* \"#utility.yul\":5668:5669   */\n      0x00\n        /* \"#utility.yul\":5661:5676   */\n      revert\n        /* \"#utility.yul\":5688:5864   */\n    tag_36:\n        /* \"#utility.yul\":5720:5721   */\n      0x00\n        /* \"#utility.yul\":5737:5757   */\n      tag_197\n        /* \"#utility.yul\":5755:5756   */\n      dup3\n        /* \"#utility.yul\":5737:5757   */\n      tag_107\n      jump\t// in\n    tag_197:\n        /* \"#utility.yul\":5732:5757   */\n      swap2\n      pop\n        /* \"#utility.yul\":5771:5791   */\n      tag_198\n        /* \"#utility.yul\":5789:5790   */\n      dup4\n        /* \"#utility.yul\":5771:5791   */\n      tag_107\n      jump\t// in\n    tag_198:\n        /* \"#utility.yul\":5766:5791   */\n      swap3\n      pop\n        /* \"#utility.yul\":5810:5811   */\n      dup3\n        /* \"#utility.yul\":5800:5835   */\n      tag_199\n      jumpi\n        /* \"#utility.yul\":5815:5833   */\n      tag_200\n      tag_114\n      jump\t// in\n    tag_200:\n        /* \"#utility.yul\":5800:5835   */\n    tag_199:\n        /* \"#utility.yul\":5856:5857   */\n      dup3\n        /* \"#utility.yul\":5853:5854   */\n      dup3\n        /* \"#utility.yul\":5849:5858   */\n      mod\n        /* \"#utility.yul\":5844:5858   */\n      swap1\n      pop\n        /* \"#utility.yul\":5688:5864   */\n      swap3\n      swap2\n      pop\n      pop\n      jump\t// out\n        /* \"#utility.yul\":5870:6050   */\n    tag_39:\n        /* \"#utility.yul\":5918:5995   */\n      0x4e487b7100000000000000000000000000000000000000000000000000000000\n        /* \"#utility.yul\":5915:5916   */\n      0x00\n        /* \"#utility.yul\":5908:5996   */\n      mstore\n        /* \"#utility.yul\":6015:6019   */\n      0x32\n        /* \"#utility.yul\":6012:6013   */\n      0x04\n        /* \"#utility.yul\":6005:6020   */\n      mstore\n        /* \"#utility.yul\":6039:6043   */\n      0x24\n        /* \"#utility.yul\":6036:6037   */\n      0x00\n        /* \"#utility.yul\":6029:6044   */\n      revert\n        /* \"#utility.yul\":6056:6236   */\n    tag_45:\n        /* \"#utility.yul\":6104:6181   */\n      0x4e487b7100000000000000000000000000000000000000000000000000000000\n        /* \"#utility.yul\":6101:6102   */\n      0x00\n        /* \"#utility.yul\":6094:6182   */\n      mstore\n        /* \"#utility.yul\":6201:6205   */\n      0x41\n        /* \"#utility.yul\":6198:6199   */\n      0x04\n        /* \"#utility.yul\":6191:6206   */\n      mstore\n        /* \"#utility.yul\":6225:6229   */\n      0x24\n        /* \"#utility.yul\":6222:6223   */\n      0x00\n        /* \"#utility.yul\":6215:6230   */\n      revert\n        /* \"#utility.yul\":6242:6412   */\n    tag_115:\n        /* \"#utility.yul\":6382:6404   */\n      0x4d616e616765722063616e6e6f7420656e746572000000000000000000000000\n        /* \"#utility.yul\":6378:6379   */\n      0x00\n        /* \"#utility.yul\":6370:6376   */\n      dup3\n        /* \"#utility.yul\":6366:6380   */\n      add\n        /* \"#utility.yul\":6359:6405   */\n      mstore\n        /* \"#utility.yul\":6242:6412   */\n      pop\n      jump\t// out\n        /* \"#utility.yul\":6418:6784   */\n    tag_116:\n        /* \"#utility.yul\":6560:6563   */\n      0x00\n        /* \"#utility.yul\":6581:6648   */\n      tag_205\n        /* \"#utility.yul\":6645:6647   */\n      0x14\n        /* \"#utility.yul\":6640:6643   */\n      dup4\n        /* \"#utility.yul\":6581:6648   */\n      tag_111\n      jump\t// in\n    tag_205:\n        /* \"#utility.yul\":6574:6648   */\n      swap2\n      pop\n        /* \"#utility.yul\":6657:6750   */\n      tag_206\n        /* \"#utility.yul\":6746:6749   */\n      dup3\n        /* \"#utility.yul\":6657:6750   */\n      tag_115\n      jump\t// in\n    tag_206:\n        /* \"#utility.yul\":6775:6777   */\n      0x20\n        /* \"#utility.yul\":6770:6773   */\n      dup3\n        /* \"#utility.yul\":6766:6778   */\n      add\n        /* \"#utility.yul\":6759:6778   */\n      swap1\n      pop\n        /* \"#utility.yul\":6418:6784   */\n      swap2\n      swap1\n      pop\n      jump\t// out\n        /* \"#utility.yul\":6790:7209   */\n    tag_52:\n        /* \"#utility.yul\":6956:6960   */\n      0x00\n        /* \"#utility.yul\":6994:6996   */\n      0x20\n        /* \"#utility.yul\":6983:6992   */\n      dup3\n        /* \"#utility.yul\":6979:6997   */\n      add\n        /* \"#utility.yul\":6971:6997   */\n      swap1\n      pop\n        /* \"#utility.yul\":7043:7052   */\n      dup2\n        /* \"#utility.yul\":7037:7041   */\n      dup2\n        /* \"#utility.yul\":7033:7053   */\n      sub\n        /* \"#utility.yul\":7029:7030   */\n      0x00\n        /* \"#utility.yul\":7018:7027   */\n      dup4\n        /* \"#utility.yul\":7014:7031   */\n      add\n        /* \"#utility.yul\":7007:7054   */\n      mstore\n        /* \"#utility.yul\":7071:7202   */\n      tag_208\n        /* \"#utility.yul\":7197:7201   */\n      dup2\n        /* \"#utility.yul\":7071:7202   */\n      tag_116\n      jump\t// in\n    tag_208:\n        /* \"#utility.yul\":7063:7202   */\n      swap1\n      pop\n        /* \"#utility.yul\":6790:7209   */\n      swap2\n      swap1\n      pop\n      jump\t// out\n        /* \"#utility.yul\":7215:7387   */\n    tag_117:\n        /* \"#utility.yul\":7355:7379   */\n      0x506c6179657220616c726561647920656e746572656400000000000000000000\n        /* \"#utility.yul\":7351:7352   */\n      0x00\n        /* \"#utility.yul\":7343:7349   */\n      dup3\n        /* \"#utility.yul\":7339:7353   */\n      add\n        /* \"#utility.yul\":7332:7380   */\n      mstore\n        /* \"#utility.yul\":7215:7387   */\n      pop\n      jump\t// out\n        /* \"#utility.yul\":7393:7759   */\n    tag_118:\n        /* \"#utility.yul\":7535:7538   */\n      0x00\n        /* \"#utility.yul\":7556:7623   */\n      tag_211\n        /* \"#utility.yul\":7620:7622   */\n      0x16\n        /* \"#utility.yul\":7615:7618   */\n      dup4\n        /* \"#utility.yul\":7556:7623   */\n      tag_111\n      jump\t// in\n    tag_211:\n        /* \"#utility.yul\":7549:7623   */\n      swap2\n      pop\n        /* \"#utility.yul\":7632:7725   */\n      tag_212\n        /* \"#utility.yul\":7721:7724   */\n      dup3\n        /* \"#utility.yul\":7632:7725   */\n      tag_117\n      jump\t// in\n    tag_212:\n        /* \"#utility.yul\":7750:7752   */\n      0x20\n        /* \"#utility.yul\":7745:7748   */\n      dup3\n        /* \"#utility.yul\":7741:7753   */\n      add\n        /* \"#utility.yul\":7734:7753   */\n      swap1\n      pop\n        /* \"#utility.yul\":7393:7759   */\n      swap2\n      swap1\n      pop\n      jump\t// out\n        /* \"#utility.yul\":7765:8184   */\n    tag_57:\n        /* \"#utility.yul\":7931:7935   */\n      0x00\n        /* \"#utility.yul\":7969:7971   */\n      0x20\n        /* \"#utility.yul\":7958:7967   */\n      dup3\n        /* \"#utility.yul\":7954:7972   */\n      add\n        /* \"#utility.yul\":7946:7972   */\n      swap1\n      pop\n        /* \"#utility.yul\":8018:8027   */\n      dup2\n        /* \"#utility.yul\":8012:8016   */\n      dup2\n        /* \"#utility.yul\":8008:8028   */\n      sub\n        /* \"#utility.yul\":8004:8005   */\n      0x00\n        /* \"#utility.yul\":7993:8002   */\n      dup4\n        /* \"#utility.yul\":7989:8006   */\n      add\n        /* \"#utility.yul\":7982:8029   */\n      mstore\n        /* \"#utility.yul\":8046:8177   */\n      tag_214\n        /* \"#utility.yul\":8172:8176   */\n      dup2\n        /* \"#utility.yul\":8046:8177   */\n      tag_118\n      jump\t// in\n    tag_214:\n        /* \"#utility.yul\":8038:8177   */\n      swap1\n      pop\n        /* \"#utility.yul\":7765:8184   */\n      swap2\n      swap1\n      pop\n      jump\t// out\n        /* \"#utility.yul\":8190:8361   */\n    tag_119:\n        /* \"#utility.yul\":8330:8353   */\n      0x4d696e696d756d206d7573742062652070617965640000000000000000000000\n        /* \"#utility.yul\":8326:8327   */\n      0x00\n        /* \"#utility.yul\":8318:8324   */\n      dup3\n        /* \"#utility.yul\":8314:8328   */\n      add\n        /* \"#utility.yul\":8307:8354   */\n      mstore\n        /* \"#utility.yul\":8190:8361   */\n      pop\n      jump\t// out\n        /* \"#utility.yul\":8367:8733   */\n    tag_120:\n        /* \"#utility.yul\":8509:8512   */\n      0x00\n        /* \"#utility.yul\":8530:8597   */\n      tag_217\n        /* \"#utility.yul\":8594:8596   */\n      0x15\n        /* \"#utility.yul\":8589:8592   */\n      dup4\n        /* \"#utility.yul\":8530:8597   */\n      tag_111\n      jump\t// in\n    tag_217:\n        /* \"#utility.yul\":8523:8597   */\n      swap2\n      pop\n        /* \"#utility.yul\":8606:8699   */\n      tag_218\n        /* \"#utility.yul\":8695:8698   */\n      dup3\n        /* \"#utility.yul\":8606:8699   */\n      tag_119\n      jump\t// in\n    tag_218:\n        /* \"#utility.yul\":8724:8726   */\n      0x20\n        /* \"#utility.yul\":8719:8722   */\n      dup3\n        /* \"#utility.yul\":8715:8727   */\n      add\n        /* \"#utility.yul\":8708:8727   */\n      swap1\n      pop\n        /* \"#utility.yul\":8367:8733   */\n      swap2\n      swap1\n      pop\n      jump\t// out\n        /* \"#utility.yul\":8739:9158   */\n    tag_60:\n        /* \"#utility.yul\":8905:8909   */\n      0x00\n        /* \"#utility.yul\":8943:8945   */\n      0x20\n        /* \"#utility.yul\":8932:8941   */\n      dup3\n        /* \"#utility.yul\":8928:8946   */\n      add\n        /* \"#utility.yul\":8920:8946   */\n      swap1\n      pop\n        /* \"#utility.yul\":8992:9001   */\n      dup2\n        /* \"#utility.yul\":8986:8990   */\n      dup2\n        /* \"#utility.yul\":8982:9002   */\n      sub\n        /* \"#utility.yul\":8978:8979   */\n      0x00\n        /* \"#utility.yul\":8967:8976   */\n      dup4\n        /* \"#utility.yul\":8963:8980   */\n      add\n        /* \"#utility.yul\":8956:9003   */\n      mstore\n        /* \"#utility.yul\":9020:9151   */\n      tag_220\n        /* \"#utility.yul\":9146:9150   */\n      dup2\n        /* \"#utility.yul\":9020:9151   */\n      tag_120\n      jump\t// in\n    tag_220:\n        /* \"#utility.yul\":9012:9151   */\n      swap1\n      pop\n        /* \"#utility.yul\":8739:9158   */\n      swap2\n      swap1\n      pop\n      jump\t// out\n        /* \"#utility.yul\":9164:9243   */\n    tag_121:\n        /* \"#utility.yul\":9203:9210   */\n      0x00\n        /* \"#utility.yul\":9232:9237   */\n      dup2\n        /* \"#utility.yul\":9221:9237   */\n      swap1\n      pop\n        /* \"#utility.yul\":9164:9243   */\n      swap2\n      swap1\n      pop\n      jump\t// out\n        /* \"#utility.yul\":9249:9406   */\n    tag_122:\n        /* \"#utility.yul\":9354:9399   */\n      tag_223\n        /* \"#utility.yul\":9374:9398   */\n      tag_224\n        /* \"#utility.yul\":9392:9397   */\n      dup3\n        /* \"#utility.yul\":9374:9398   */\n      tag_107\n      jump\t// in\n    tag_224:\n        /* \"#utility.yul\":9354:9399   */\n      tag_121\n      jump\t// in\n    tag_223:\n        /* \"#utility.yul\":9349:9352   */\n      dup3\n        /* \"#utility.yul\":9342:9400   */\n      mstore\n        /* \"#utility.yul\":9249:9406   */\n      pop\n      pop\n      jump\t// out\n        /* \"#utility.yul\":9412:9531   */\n    tag_123:\n        /* \"#utility.yul\":9484:9490   */\n      0x00\n        /* \"#utility.yul\":9518:9523   */\n      dup2\n        /* \"#utility.yul\":9512:9524   */\n      sload\n        /* \"#utility.yul\":9502:9524   */\n      swap1\n      pop\n        /* \"#utility.yul\":9412:9531   */\n      swap2\n      swap1\n      pop\n      jump\t// out\n        /* \"#utility.yul\":9537:9708   */\n    tag_124:\n        /* \"#utility.yul\":9662:9673   */\n      0x00\n        /* \"#utility.yul\":9699:9702   */\n      dup2\n        /* \"#utility.yul\":9684:9702   */\n      swap1\n      pop\n        /* \"#utility.yul\":9537:9708   */\n      swap3\n      swap2\n      pop\n      pop\n      jump\t// out\n        /* \"#utility.yul\":9714:9878   */\n    tag_125:\n        /* \"#utility.yul\":9786:9790   */\n      0x00\n        /* \"#utility.yul\":9809:9812   */\n      dup2\n        /* \"#utility.yul\":9801:9812   */\n      swap1\n      pop\n        /* \"#utility.yul\":9832:9835   */\n      dup2\n        /* \"#utility.yul\":9829:9830   */\n      0x00\n        /* \"#utility.yul\":9822:9836   */\n      mstore\n        /* \"#utility.yul\":9866:9870   */\n      0x20\n        /* \"#utility.yul\":9863:9864   */\n      0x00\n        /* \"#utility.yul\":9853:9871   */\n      keccak256\n        /* \"#utility.yul\":9845:9871   */\n      swap1\n      pop\n        /* \"#utility.yul\":9714:9878   */\n      swap2\n      swap1\n      pop\n      jump\t// out\n        /* \"#utility.yul\":9884:10024   */\n    tag_126:\n        /* \"#utility.yul\":9985:10017   */\n      tag_229\n        /* \"#utility.yul\":10011:10016   */\n      dup2\n        /* \"#utility.yul\":9985:10017   */\n      tag_99\n      jump\t// in\n    tag_229:\n        /* \"#utility.yul\":9980:9983   */\n      dup3\n        /* \"#utility.yul\":9973:10018   */\n      mstore\n        /* \"#utility.yul\":9884:10024   */\n      pop\n      pop\n      jump\t// out\n        /* \"#utility.yul\":10030:10257   */\n    tag_127:\n        /* \"#utility.yul\":10123:10133   */\n      0x00\n        /* \"#utility.yul\":10144:10214   */\n      tag_231\n        /* \"#utility.yul\":10210:10213   */\n      dup4\n        /* \"#utility.yul\":10202:10208   */\n      dup4\n        /* \"#utility.yul\":10144:10214   */\n      tag_126\n      jump\t// in\n    tag_231:\n        /* \"#utility.yul\":10246:10250   */\n      0x20\n        /* \"#utility.yul\":10241:10244   */\n      dup4\n        /* \"#utility.yul\":10237:10251   */\n      add\n        /* \"#utility.yul\":10223:10251   */\n      swap1\n      pop\n        /* \"#utility.yul\":10030:10257   */\n      swap3\n      swap2\n      pop\n      pop\n      jump\t// out\n        /* \"#utility.yul\":10263:10365   */\n    tag_128:\n        /* \"#utility.yul\":10305:10313   */\n      0x00\n        /* \"#utility.yul\":10352:10357   */\n      dup2\n        /* \"#utility.yul\":10349:10350   */\n      0x00\n        /* \"#utility.yul\":10345:10358   */\n      shr\n        /* \"#utility.yul\":10324:10358   */\n      swap1\n      pop\n        /* \"#utility.yul\":10263:10365   */\n      swap2\n      swap1\n      pop\n      jump\t// out\n        /* \"#utility.yul\":10371:10518   */\n    tag_129:\n        /* \"#utility.yul\":10429:10436   */\n      0x00\n        /* \"#utility.yul\":10469:10511   */\n      0xffffffffffffffffffffffffffffffffffffffff\n        /* \"#utility.yul\":10462:10467   */\n      dup3\n        /* \"#utility.yul\":10458:10512   */\n      and\n        /* \"#utility.yul\":10447:10512   */\n      swap1\n      pop\n        /* \"#utility.yul\":10371:10518   */\n      swap2\n      swap1\n      pop\n      jump\t// out\n        /* \"#utility.yul\":10524:10706   */\n    tag_130:\n        /* \"#utility.yul\":10601:10606   */\n      0x00\n        /* \"#utility.yul\":10626:10700   */\n      tag_235\n        /* \"#utility.yul\":10665:10699   */\n      tag_236\n        /* \"#utility.yul\":10688:10698   */\n      dup4\n        /* \"#utility.yul\":10665:10699   */\n      tag_128\n      jump\t// in\n    tag_236:\n        /* \"#utility.yul\":10626:10700   */\n      tag_129\n      jump\t// in\n    tag_235:\n        /* \"#utility.yul\":10617:10700   */\n      swap1\n      pop\n        /* \"#utility.yul\":10524:10706   */\n      swap2\n      swap1\n      pop\n      jump\t// out\n        /* \"#utility.yul\":10712:10872   */\n    tag_131:\n        /* \"#utility.yul\":10775:10780   */\n      0x00\n        /* \"#utility.yul\":10800:10865   */\n      tag_238\n        /* \"#utility.yul\":10859:10863   */\n      dup3\n        /* \"#utility.yul\":10853:10864   */\n      sload\n        /* \"#utility.yul\":10800:10865   */\n      tag_130\n      jump\t// in\n    tag_238:\n        /* \"#utility.yul\":10791:10865   */\n      swap1\n      pop\n        /* \"#utility.yul\":10712:10872   */\n      swap2\n      swap1\n      pop\n      jump\t// out\n        /* \"#utility.yul\":10878:10996   */\n    tag_132:\n        /* \"#utility.yul\":10953:10957   */\n      0x00\n        /* \"#utility.yul\":10985:10989   */\n      0x01\n        /* \"#utility.yul\":10980:10983   */\n      dup3\n        /* \"#utility.yul\":10976:10990   */\n      add\n        /* \"#utility.yul\":10968:10990   */\n      swap1\n      pop\n        /* \"#utility.yul\":10878:10996   */\n      swap2\n      swap1\n      pop\n      jump\t// out\n        /* \"#utility.yul\":11048:11915   */\n    tag_133:\n        /* \"#utility.yul\":11198:11201   */\n      0x00\n        /* \"#utility.yul\":11227:11286   */\n      tag_241\n        /* \"#utility.yul\":11280:11285   */\n      dup3\n        /* \"#utility.yul\":11227:11286   */\n      tag_123\n      jump\t// in\n    tag_241:\n        /* \"#utility.yul\":11302:11414   */\n      tag_242\n        /* \"#utility.yul\":11407:11413   */\n      dup2\n        /* \"#utility.yul\":11402:11405   */\n      dup6\n        /* \"#utility.yul\":11302:11414   */\n      tag_124\n      jump\t// in\n    tag_242:\n        /* \"#utility.yul\":11295:11414   */\n      swap4\n      pop\n        /* \"#utility.yul\":11438:11499   */\n      tag_243\n        /* \"#utility.yul\":11493:11498   */\n      dup4\n        /* \"#utility.yul\":11438:11499   */\n      tag_125\n      jump\t// in\n    tag_243:\n        /* \"#utility.yul\":11522:11529   */\n      dup1\n        /* \"#utility.yul\":11553:11554   */\n      0x00\n        /* \"#utility.yul\":11538:11890   */\n    tag_244:\n        /* \"#utility.yul\":11563:11569   */\n      dup4\n        /* \"#utility.yul\":11560:11561   */\n      dup2\n        /* \"#utility.yul\":11557:11570   */\n      lt\n        /* \"#utility.yul\":11538:11890   */\n      iszero\n      tag_246\n      jumpi\n        /* \"#utility.yul\":11633:11685   */\n      tag_247\n        /* \"#utility.yul\":11678:11684   */\n      dup3\n        /* \"#utility.yul\":11633:11685   */\n      tag_131\n      jump\t// in\n    tag_247:\n        /* \"#utility.yul\":11705:11792   */\n      tag_248\n        /* \"#utility.yul\":11788:11791   */\n      dup9\n        /* \"#utility.yul\":11773:11786   */\n      dup3\n        /* \"#utility.yul\":11705:11792   */\n      tag_127\n      jump\t// in\n    tag_248:\n        /* \"#utility.yul\":11698:11792   */\n      swap8\n      pop\n        /* \"#utility.yul\":11815:11880   */\n      tag_249\n        /* \"#utility.yul\":11873:11879   */\n      dup4\n        /* \"#utility.yul\":11815:11880   */\n      tag_132\n      jump\t// in\n    tag_249:\n        /* \"#utility.yul\":11805:11880   */\n      swap3\n      pop\n        /* \"#utility.yul\":11598:11890   */\n      pop\n        /* \"#utility.yul\":11585:11586   */\n      0x01\n        /* \"#utility.yul\":11582:11583   */\n      dup2\n        /* \"#utility.yul\":11578:11587   */\n      add\n        /* \"#utility.yul\":11573:11587   */\n      swap1\n      pop\n        /* \"#utility.yul\":11538:11890   */\n      jump(tag_244)\n    tag_246:\n        /* \"#utility.yul\":11542:11556   */\n      pop\n        /* \"#utility.yul\":11906:11909   */\n      dup6\n        /* \"#utility.yul\":11899:11909   */\n      swap4\n      pop\n        /* \"#utility.yul\":11203:11915   */\n      pop\n      pop\n      pop\n        /* \"#utility.yul\":11048:11915   */\n      swap3\n      swap2\n      pop\n      pop\n      jump\t// out\n        /* \"#utility.yul\":11921:12564   */\n    tag_69:\n        /* \"#utility.yul\":12152:12155   */\n      0x00\n        /* \"#utility.yul\":12167:12242   */\n      tag_251\n        /* \"#utility.yul\":12238:12241   */\n      dup3\n        /* \"#utility.yul\":12229:12235   */\n      dup7\n        /* \"#utility.yul\":12167:12242   */\n      tag_122\n      jump\t// in\n    tag_251:\n        /* \"#utility.yul\":12267:12269   */\n      0x20\n        /* \"#utility.yul\":12262:12265   */\n      dup3\n        /* \"#utility.yul\":12258:12270   */\n      add\n        /* \"#utility.yul\":12251:12270   */\n      swap2\n      pop\n        /* \"#utility.yul\":12280:12355   */\n      tag_252\n        /* \"#utility.yul\":12351:12354   */\n      dup3\n        /* \"#utility.yul\":12342:12348   */\n      dup6\n        /* \"#utility.yul\":12280:12355   */\n      tag_122\n      jump\t// in\n    tag_252:\n        /* \"#utility.yul\":12380:12382   */\n      0x20\n        /* \"#utility.yul\":12375:12378   */\n      dup3\n        /* \"#utility.yul\":12371:12383   */\n      add\n        /* \"#utility.yul\":12364:12383   */\n      swap2\n      pop\n        /* \"#utility.yul\":12400:12538   */\n      tag_253\n        /* \"#utility.yul\":12534:12537   */\n      dup3\n        /* \"#utility.yul\":12525:12531   */\n      dup5\n        /* \"#utility.yul\":12400:12538   */\n      tag_133\n      jump\t// in\n    tag_253:\n        /* \"#utility.yul\":12393:12538   */\n      swap2\n      pop\n        /* \"#utility.yul\":12555:12558   */\n      dup2\n        /* \"#utility.yul\":12548:12558   */\n      swap1\n      pop\n        /* \"#utility.yul\":11921:12564   */\n      swap5\n      swap4\n      pop\n      pop\n      pop\n      pop\n      jump\t// out\n        /* \"#utility.yul\":12570:12668   */\n    tag_134:\n        /* \"#utility.yul\":12621:12627   */\n      0x00\n        /* \"#utility.yul\":12655:12660   */\n      dup2\n        /* \"#utility.yul\":12649:12661   */\n      mload\n        /* \"#utility.yul\":12639:12661   */\n      swap1\n      pop\n        /* \"#utility.yul\":12570:12668   */\n      swap2\n      swap1\n      pop\n      jump\t// out\n        /* \"#utility.yul\":12674:12821   */\n    tag_135:\n        /* \"#utility.yul\":12775:12786   */\n      0x00\n        /* \"#utility.yul\":12812:12815   */\n      dup2\n        /* \"#utility.yul\":12797:12815   */\n      swap1\n      pop\n        /* \"#utility.yul\":12674:12821   */\n      swap3\n      swap2\n      pop\n      pop\n      jump\t// out\n        /* \"#utility.yul\":12827:13134   */\n    tag_136:\n        /* \"#utility.yul\":12895:12896   */\n      0x00\n        /* \"#utility.yul\":12905:13018   */\n    tag_257:\n        /* \"#utility.yul\":12919:12925   */\n      dup4\n        /* \"#utility.yul\":12916:12917   */\n      dup2\n        /* \"#utility.yul\":12913:12926   */\n      lt\n        /* \"#utility.yul\":12905:13018   */\n      iszero\n      tag_259\n      jumpi\n        /* \"#utility.yul\":13004:13005   */\n      dup1\n        /* \"#utility.yul\":12999:13002   */\n      dup3\n        /* \"#utility.yul\":12995:13006   */\n      add\n        /* \"#utility.yul\":12989:13007   */\n      mload\n        /* \"#utility.yul\":12985:12986   */\n      dup2\n        /* \"#utility.yul\":12980:12983   */\n      dup5\n        /* \"#utility.yul\":12976:12987   */\n      add\n        /* \"#utility.yul\":12969:13008   */\n      mstore\n        /* \"#utility.yul\":12941:12943   */\n      0x20\n        /* \"#utility.yul\":12938:12939   */\n      dup2\n        /* \"#utility.yul\":12934:12944   */\n      add\n        /* \"#utility.yul\":12929:12944   */\n      swap1\n      pop\n        /* \"#utility.yul\":12905:13018   */\n      jump(tag_257)\n    tag_259:\n        /* \"#utility.yul\":13036:13042   */\n      dup4\n        /* \"#utility.yul\":13033:13034   */\n      dup2\n        /* \"#utility.yul\":13030:13043   */\n      gt\n        /* \"#utility.yul\":13027:13128   */\n      iszero\n      tag_260\n      jumpi\n        /* \"#utility.yul\":13116:13117   */\n      0x00\n        /* \"#utility.yul\":13107:13113   */\n      dup5\n        /* \"#utility.yul\":13102:13105   */\n      dup5\n        /* \"#utility.yul\":13098:13114   */\n      add\n        /* \"#utility.yul\":13091:13118   */\n      mstore\n        /* \"#utility.yul\":13027:13128   */\n    tag_260:\n        /* \"#utility.yul\":12876:13134   */\n      pop\n        /* \"#utility.yul\":12827:13134   */\n      pop\n      pop\n      pop\n      jump\t// out\n        /* \"#utility.yul\":13140:13513   */\n    tag_137:\n        /* \"#utility.yul\":13244:13247   */\n      0x00\n        /* \"#utility.yul\":13272:13310   */\n      tag_262\n        /* \"#utility.yul\":13304:13309   */\n      dup3\n        /* \"#utility.yul\":13272:13310   */\n      tag_134\n      jump\t// in\n    tag_262:\n        /* \"#utility.yul\":13326:13414   */\n      tag_263\n        /* \"#utility.yul\":13407:13413   */\n      dup2\n        /* \"#utility.yul\":13402:13405   */\n      dup6\n        /* \"#utility.yul\":13326:13414   */\n      tag_135\n      jump\t// in\n    tag_263:\n        /* \"#utility.yul\":13319:13414   */\n      swap4\n      pop\n        /* \"#utility.yul\":13423:13475   */\n      tag_264\n        /* \"#utility.yul\":13468:13474   */\n      dup2\n        /* \"#utility.yul\":13463:13466   */\n      dup6\n        /* \"#utility.yul\":13456:13460   */\n      0x20\n        /* \"#utility.yul\":13449:13454   */\n      dup7\n        /* \"#utility.yul\":13445:13461   */\n      add\n        /* \"#utility.yul\":13423:13475   */\n      tag_136\n      jump\t// in\n    tag_264:\n        /* \"#utility.yul\":13500:13506   */\n      dup1\n        /* \"#utility.yul\":13495:13498   */\n      dup5\n        /* \"#utility.yul\":13491:13507   */\n      add\n        /* \"#utility.yul\":13484:13507   */\n      swap2\n      pop\n        /* \"#utility.yul\":13248:13513   */\n      pop\n        /* \"#utility.yul\":13140:13513   */\n      swap3\n      swap2\n      pop\n      pop\n      jump\t// out\n        /* \"#utility.yul\":13519:13790   */\n    tag_71:\n        /* \"#utility.yul\":13649:13652   */\n      0x00\n        /* \"#utility.yul\":13671:13764   */\n      tag_266\n        /* \"#utility.yul\":13760:13763   */\n      dup3\n        /* \"#utility.yul\":13751:13757   */\n      dup5\n        /* \"#utility.yul\":13671:13764   */\n      tag_137\n      jump\t// in\n    tag_266:\n        /* \"#utility.yul\":13664:13764   */\n      swap2\n      pop\n        /* \"#utility.yul\":13781:13784   */\n      dup2\n        /* \"#utility.yul\":13774:13784   */\n      swap1\n      pop\n        /* \"#utility.yul\":13519:13790   */\n      swap3\n      swap2\n      pop\n      pop\n      jump\t// out\n        /* \"#utility.yul\":13796:13873   */\n    tag_138:\n        /* \"#utility.yul\":13833:13840   */\n      0x00\n        /* \"#utility.yul\":13862:13867   */\n      dup2\n        /* \"#utility.yul\":13851:13867   */\n      swap1\n      pop\n        /* \"#utility.yul\":13796:13873   */\n      swap2\n      swap1\n      pop\n      jump\t// out\n        /* \"#utility.yul\":13879:14001   */\n    tag_139:\n        /* \"#utility.yul\":13952:13976   */\n      tag_269\n        /* \"#utility.yul\":13970:13975   */\n      dup2\n        /* \"#utility.yul\":13952:13976   */\n      tag_138\n      jump\t// in\n    tag_269:\n        /* \"#utility.yul\":13945:13950   */\n      dup2\n        /* \"#utility.yul\":13942:13977   */\n      eq\n        /* \"#utility.yul\":13932:13995   */\n      tag_270\n      jumpi\n        /* \"#utility.yul\":13991:13992   */\n      0x00\n        /* \"#utility.yul\":13988:13989   */\n      dup1\n        /* \"#utility.yul\":13981:13993   */\n      revert\n        /* \"#utility.yul\":13932:13995   */\n    tag_270:\n        /* \"#utility.yul\":13879:14001   */\n      pop\n      jump\t// out\n        /* \"#utility.yul\":14007:14150   */\n    tag_140:\n        /* \"#utility.yul\":14064:14069   */\n      0x00\n        /* \"#utility.yul\":14095:14101   */\n      dup2\n        /* \"#utility.yul\":14089:14102   */\n      mload\n        /* \"#utility.yul\":14080:14102   */\n      swap1\n      pop\n        /* \"#utility.yul\":14111:14144   */\n      tag_272\n        /* \"#utility.yul\":14138:14143   */\n      dup2\n        /* \"#utility.yul\":14111:14144   */\n      tag_139\n      jump\t// in\n    tag_272:\n        /* \"#utility.yul\":14007:14150   */\n      swap3\n      swap2\n      pop\n      pop\n      jump\t// out\n        /* \"#utility.yul\":14156:14507   */\n    tag_75:\n        /* \"#utility.yul\":14226:14232   */\n      0x00\n        /* \"#utility.yul\":14275:14277   */\n      0x20\n        /* \"#utility.yul\":14263:14272   */\n      dup3\n        /* \"#utility.yul\":14254:14261   */\n      dup5\n        /* \"#utility.yul\":14250:14273   */\n      sub\n        /* \"#utility.yul\":14246:14278   */\n      slt\n        /* \"#utility.yul\":14243:14362   */\n      iszero\n      tag_274\n      jumpi\n        /* \"#utility.yul\":14281:14360   */\n      tag_275\n      tag_105\n      jump\t// in\n    tag_275:\n        /* \"#utility.yul\":14243:14362   */\n    tag_274:\n        /* \"#utility.yul\":14401:14402   */\n      0x00\n        /* \"#utility.yul\":14426:14490   */\n      tag_276\n        /* \"#utility.yul\":14482:14489   */\n      dup5\n        /* \"#utility.yul\":14473:14479   */\n      dup3\n        /* \"#utility.yul\":14462:14471   */\n      dup6\n        /* \"#utility.yul\":14458:14480   */\n      add\n        /* \"#utility.yul\":14426:14490   */\n      tag_140\n      jump\t// in\n    tag_276:\n        /* \"#utility.yul\":14416:14490   */\n      swap2\n      pop\n        /* \"#utility.yul\":14372:14500   */\n      pop\n        /* \"#utility.yul\":14156:14507   */\n      swap3\n      swap2\n      pop\n      pop\n      jump\t// out\n        /* \"#utility.yul\":14513:14693   */\n    tag_141:\n        /* \"#utility.yul\":14561:14638   */\n      0x4e487b7100000000000000000000000000000000000000000000000000000000\n        /* \"#utility.yul\":14558:14559   */\n      0x00\n        /* \"#utility.yul\":14551:14639   */\n      mstore\n        /* \"#utility.yul\":14658:14662   */\n      0x11\n        /* \"#utility.yul\":14655:14656   */\n      0x04\n        /* \"#utility.yul\":14648:14663   */\n      mstore\n        /* \"#utility.yul\":14682:14686   */\n      0x24\n        /* \"#utility.yul\":14679:14680   */\n      0x00\n        /* \"#utility.yul\":14672:14687   */\n      revert\n        /* \"#utility.yul\":14699:14932   */\n    tag_85:\n        /* \"#utility.yul\":14738:14741   */\n      0x00\n        /* \"#utility.yul\":14761:14785   */\n      tag_279\n        /* \"#utility.yul\":14779:14784   */\n      dup3\n        /* \"#utility.yul\":14761:14785   */\n      tag_107\n      jump\t// in\n    tag_279:\n        /* \"#utility.yul\":14752:14785   */\n      swap2\n      pop\n        /* \"#utility.yul\":14807:14873   */\n      0xffffffffffffffffffffffffffffffffffffffffffffffffffffffffffffffff\n        /* \"#utility.yul\":14800:14805   */\n      dup3\n        /* \"#utility.yul\":14797:14874   */\n      sub\n        /* \"#utility.yul\":14794:14897   */\n      tag_280\n      jumpi\n        /* \"#utility.yul\":14877:14895   */\n      tag_281\n      tag_141\n      jump\t// in\n    tag_281:\n        /* \"#utility.yul\":14794:14897   */\n    tag_280:\n        /* \"#utility.yul\":14924:14925   */\n      0x01\n        /* \"#utility.yul\":14917:14922   */\n      dup3\n        /* \"#utility.yul\":14913:14926   */\n      add\n        /* \"#utility.yul\":14906:14926   */\n      swap1\n      pop\n        /* \"#utility.yul\":14699:14932   */\n      swap2\n      swap1\n      pop\n      jump\t// out\n\n    auxdata: 0xa2646970667358221220e2cad834317aa0fc4514936edba5dc16abaf3eea1e32aa1a68aa6ce3fad5ab8e64736f6c634300080f0033\n}\n",
				"bytecode": {
					"linkReferences": {},
					"object": "608060405234801561001057600080fd5b50336000806101000a81548173ffffffffffffffffffffffffffffffffffffffff021916908373ffffffffffffffffffffffffffffffffffffffff160217905550610e78806100606000396000f3fe60806040526004361061004a5760003560e01c8063481c6a751461004f5780635d495aea1461007a578063e97dcb6214610091578063ecb3db521461009b578063f71d96cb146100c6575b600080fd5b34801561005b57600080fd5b50610064610103565b6040516100719190610741565b60405180910390f35b34801561008657600080fd5b5061008f610127565b005b6100996102d6565b005b3480156100a757600080fd5b506100b0610462565b6040516100bd919061082c565b60405180910390f35b3480156100d257600080fd5b506100ed60048036038101906100e89190610889565b6104f0565b6040516100fa91906108c5565b60405180910390f35b60008054906101000a900473ffffffffffffffffffffffffffffffffffffffff1681565b60008054906101000a900473ffffffffffffffffffffffffffffffffffffffff1673ffffffffffffffffffffffffffffffffffffffff163373ffffffffffffffffffffffffffffffffffffffff16146101b5576040517f08c379a00000000000000000000000000000000000000000000000000000000081526004016101ac9061093d565b60405180910390fd5b60006001805490506101c561052f565b6101cf919061098c565b90506000309050600182815481106101ea576101e96109bd565b5b9060005260206000200160009054906101000a900473ffffffffffffffffffffffffffffffffffffffff1673ffffffffffffffffffffffffffffffffffffffff166108fc8273ffffffffffffffffffffffffffffffffffffffff16319081150290604051600060405180830381858888f19350505050158015610271573d6000803e3d6000fd5b50600067ffffffffffffffff81111561028d5761028c6109ec565b5b6040519080825280602002602001820160405280156102bb5781602001602082028036833780820191505090505b50600190805190602001906102d1929190610659565b505050565b60008054906101000a900473ffffffffffffffffffffffffffffffffffffffff1673ffffffffffffffffffffffffffffffffffffffff163373ffffffffffffffffffffffffffffffffffffffff1603610364576040517f08c379a000000000000000000000000000000000000000000000000000000000815260040161035b90610a67565b60405180910390fd5b600015156103706105ad565b1515146103b2576040517f08c379a00000000000000000000000000000000000000000000000000000000081526004016103a990610ad3565b60405180910390fd5b670de0b6b3a76400003410156103fd576040517f08c379a00000000000000000000000000000000000000000000000000000000081526004016103f490610b3f565b60405180910390fd5b6001339080600181540180825580915050600190039060005260206000200160009091909190916101000a81548173ffffffffffffffffffffffffffffffffffffffff021916908373ffffffffffffffffffffffffffffffffffffffff160217905550565b606060018054806020026020016040519081016040528092919081815260200182805480156104e657602002820191906000526020600020905b8160009054906101000a900473ffffffffffffffffffffffffffffffffffffffff1673ffffffffffffffffffffffffffffffffffffffff168152602001906001019080831161049c575b5050505050905090565b6001818154811061050057600080fd5b906000526020600020016000915054906101000a900473ffffffffffffffffffffffffffffffffffffffff1681565b600060024443600160405160200161054993929190610c9e565b6040516020818303038152906040526040516105659190610d51565b602060405180830381855afa158015610582573d6000803e3d6000fd5b5050506040513d601f19601f820116820180604052508101906105a59190610d9e565b60001c905090565b600080600090505b600180549050811015610650573373ffffffffffffffffffffffffffffffffffffffff16600182815481106105ed576105ec6109bd565b5b9060005260206000200160009054906101000a900473ffffffffffffffffffffffffffffffffffffffff1673ffffffffffffffffffffffffffffffffffffffff160361063d576001915050610656565b808061064890610dfa565b9150506105b5565b50600090505b90565b8280548282559060005260206000209081019282156106d2579160200282015b828111156106d15782518260006101000a81548173ffffffffffffffffffffffffffffffffffffffff021916908373ffffffffffffffffffffffffffffffffffffffff16021790555091602001919060010190610679565b5b5090506106df91906106e3565b5090565b5b808211156106fc5760008160009055506001016106e4565b5090565b600073ffffffffffffffffffffffffffffffffffffffff82169050919050565b600061072b82610700565b9050919050565b61073b81610720565b82525050565b60006020820190506107566000830184610732565b92915050565b600081519050919050565b600082825260208201905092915050565b6000819050602082019050919050565b600061079382610700565b9050919050565b6107a381610788565b82525050565b60006107b5838361079a565b60208301905092915050565b6000602082019050919050565b60006107d98261075c565b6107e38185610767565b93506107ee83610778565b8060005b8381101561081f57815161080688826107a9565b9750610811836107c1565b9250506001810190506107f2565b5085935050505092915050565b6000602082019050818103600083015261084681846107ce565b905092915050565b600080fd5b6000819050919050565b61086681610853565b811461087157600080fd5b50565b6000813590506108838161085d565b92915050565b60006020828403121561089f5761089e61084e565b5b60006108ad84828501610874565b91505092915050565b6108bf81610788565b82525050565b60006020820190506108da60008301846108b6565b92915050565b600082825260208201905092915050565b7f6f6e6c79206d616e616765722063616e207069636b207468652077696e6e6572600082015250565b60006109276020836108e0565b9150610932826108f1565b602082019050919050565b600060208201905081810360008301526109568161091a565b9050919050565b7f4e487b7100000000000000000000000000000000000000000000000000000000600052601260045260246000fd5b600061099782610853565b91506109a283610853565b9250826109b2576109b161095d565b5b828206905092915050565b7f4e487b7100000000000000000000000000000000000000000000000000000000600052603260045260246000fd5b7f4e487b7100000000000000000000000000000000000000000000000000000000600052604160045260246000fd5b7f4d616e616765722063616e6e6f7420656e746572000000000000000000000000600082015250565b6000610a516014836108e0565b9150610a5c82610a1b565b602082019050919050565b60006020820190508181036000830152610a8081610a44565b9050919050565b7f506c6179657220616c726561647920656e746572656400000000000000000000600082015250565b6000610abd6016836108e0565b9150610ac882610a87565b602082019050919050565b60006020820190508181036000830152610aec81610ab0565b9050919050565b7f4d696e696d756d206d7573742062652070617965640000000000000000000000600082015250565b6000610b296015836108e0565b9150610b3482610af3565b602082019050919050565b60006020820190508181036000830152610b5881610b1c565b9050919050565b6000819050919050565b610b7a610b7582610853565b610b5f565b82525050565b600081549050919050565b600081905092915050565b60008190508160005260206000209050919050565b610bb481610788565b82525050565b6000610bc68383610bab565b60208301905092915050565b60008160001c9050919050565b600073ffffffffffffffffffffffffffffffffffffffff82169050919050565b6000610c12610c0d83610bd2565b610bdf565b9050919050565b6000610c258254610bff565b9050919050565b6000600182019050919050565b6000610c4482610b80565b610c4e8185610b8b565b9350610c5983610b96565b8060005b83811015610c9157610c6e82610c19565b610c788882610bba565b9750610c8383610c2c565b925050600181019050610c5d565b5085935050505092915050565b6000610caa8286610b69565b602082019150610cba8285610b69565b602082019150610cca8284610c39565b9150819050949350505050565b600081519050919050565b600081905092915050565b60005b83811015610d0b578082015181840152602081019050610cf0565b83811115610d1a576000848401525b50505050565b6000610d2b82610cd7565b610d358185610ce2565b9350610d45818560208601610ced565b80840191505092915050565b6000610d5d8284610d20565b915081905092915050565b6000819050919050565b610d7b81610d68565b8114610d8657600080fd5b50565b600081519050610d9881610d72565b92915050565b600060208284031215610db457610db361084e565b5b6000610dc284828501610d89565b91505092915050565b7f4e487b7100000000000000000000000000000000000000000000000000000000600052601160045260246000fd5b6000610e0582610853565b91507fffffffffffffffffffffffffffffffffffffffffffffffffffffffffffffffff8203610e3757610e36610dcb565b5b60018201905091905056fea2646970667358221220e2cad834317aa0fc4514936edba5dc16abaf3eea1e32aa1a68aa6ce3fad5ab8e64736f6c634300080f0033",
					"opcodes": "PUSH1 0x80 PUSH1 0x40 MSTORE CALLVALUE DUP1 ISZERO PUSH2 0x10 JUMPI PUSH1 0x0 DUP1 REVERT JUMPDEST POP CALLER PUSH1 0x0 DUP1 PUSH2 0x100 EXP DUP2 SLOAD DUP2 PUSH20 0xFFFFFFFFFFFFFFFFFFFFFFFFFFFFFFFFFFFFFFFF MUL NOT AND SWAP1 DUP4 PUSH20 0xFFFFFFFFFFFFFFFFFFFFFFFFFFFFFFFFFFFFFFFF AND MUL OR SWAP1 SSTORE POP PUSH2 0xE78 DUP1 PUSH2 0x60 PUSH1 0x0 CODECOPY PUSH1 0x0 RETURN INVALID PUSH1 0x80 PUSH1 0x40 MSTORE PUSH1 0x4 CALLDATASIZE LT PUSH2 0x4A JUMPI PUSH1 0x0 CALLDATALOAD PUSH1 0xE0 SHR DUP1 PUSH4 0x481C6A75 EQ PUSH2 0x4F JUMPI DUP1 PUSH4 0x5D495AEA EQ PUSH2 0x7A JUMPI DUP1 PUSH4 0xE97DCB62 EQ PUSH2 0x91 JUMPI DUP1 PUSH4 0xECB3DB52 EQ PUSH2 0x9B JUMPI DUP1 PUSH4 0xF71D96CB EQ PUSH2 0xC6 JUMPI JUMPDEST PUSH1 0x0 DUP1 REVERT JUMPDEST CALLVALUE DUP1 ISZERO PUSH2 0x5B JUMPI PUSH1 0x0 DUP1 REVERT JUMPDEST POP PUSH2 0x64 PUSH2 0x103 JUMP JUMPDEST PUSH1 0x40 MLOAD PUSH2 0x71 SWAP2 SWAP1 PUSH2 0x741 JUMP JUMPDEST PUSH1 0x40 MLOAD DUP1 SWAP2 SUB SWAP1 RETURN JUMPDEST CALLVALUE DUP1 ISZERO PUSH2 0x86 JUMPI PUSH1 0x0 DUP1 REVERT JUMPDEST POP PUSH2 0x8F PUSH2 0x127 JUMP JUMPDEST STOP JUMPDEST PUSH2 0x99 PUSH2 0x2D6 JUMP JUMPDEST STOP JUMPDEST CALLVALUE DUP1 ISZERO PUSH2 0xA7 JUMPI PUSH1 0x0 DUP1 REVERT JUMPDEST POP PUSH2 0xB0 PUSH2 0x462 JUMP JUMPDEST PUSH1 0x40 MLOAD PUSH2 0xBD SWAP2 SWAP1 PUSH2 0x82C JUMP JUMPDEST PUSH1 0x40 MLOAD DUP1 SWAP2 SUB SWAP1 RETURN JUMPDEST CALLVALUE DUP1 ISZERO PUSH2 0xD2 JUMPI PUSH1 0x0 DUP1 REVERT JUMPDEST POP PUSH2 0xED PUSH1 0x4 DUP1 CALLDATASIZE SUB DUP2 ADD SWAP1 PUSH2 0xE8 SWAP2 SWAP1 PUSH2 0x889 JUMP JUMPDEST PUSH2 0x4F0 JUMP JUMPDEST PUSH1 0x40 MLOAD PUSH2 0xFA SWAP2 SWAP1 PUSH2 0x8C5 JUMP JUMPDEST PUSH1 0x40 MLOAD DUP1 SWAP2 SUB SWAP1 RETURN JUMPDEST PUSH1 0x0 DUP1 SLOAD SWAP1 PUSH2 0x100 EXP SWAP1 DIV PUSH20 0xFFFFFFFFFFFFFFFFFFFFFFFFFFFFFFFFFFFFFFFF AND DUP2 JUMP JUMPDEST PUSH1 0x0 DUP1 SLOAD SWAP1 PUSH2 0x100 EXP SWAP1 DIV PUSH20 0xFFFFFFFFFFFFFFFFFFFFFFFFFFFFFFFFFFFFFFFF AND PUSH20 0xFFFFFFFFFFFFFFFFFFFFFFFFFFFFFFFFFFFFFFFF AND CALLER PUSH20 0xFFFFFFFFFFFFFFFFFFFFFFFFFFFFFFFFFFFFFFFF AND EQ PUSH2 0x1B5 JUMPI PUSH1 0x40 MLOAD PUSH32 0x8C379A000000000000000000000000000000000000000000000000000000000 DUP2 MSTORE PUSH1 0x4 ADD PUSH2 0x1AC SWAP1 PUSH2 0x93D JUMP JUMPDEST PUSH1 0x40 MLOAD DUP1 SWAP2 SUB SWAP1 REVERT JUMPDEST PUSH1 0x0 PUSH1 0x1 DUP1 SLOAD SWAP1 POP PUSH2 0x1C5 PUSH2 0x52F JUMP JUMPDEST PUSH2 0x1CF SWAP2 SWAP1 PUSH2 0x98C JUMP JUMPDEST SWAP1 POP PUSH1 0x0 ADDRESS SWAP1 POP PUSH1 0x1 DUP3 DUP2 SLOAD DUP2 LT PUSH2 0x1EA JUMPI PUSH2 0x1E9 PUSH2 0x9BD JUMP JUMPDEST JUMPDEST SWAP1 PUSH1 0x0 MSTORE PUSH1 0x20 PUSH1 0x0 KECCAK256 ADD PUSH1 0x0 SWAP1 SLOAD SWAP1 PUSH2 0x100 EXP SWAP1 DIV PUSH20 0xFFFFFFFFFFFFFFFFFFFFFFFFFFFFFFFFFFFFFFFF AND PUSH20 0xFFFFFFFFFFFFFFFFFFFFFFFFFFFFFFFFFFFFFFFF AND PUSH2 0x8FC DUP3 PUSH20 0xFFFFFFFFFFFFFFFFFFFFFFFFFFFFFFFFFFFFFFFF AND BALANCE SWAP1 DUP2 ISZERO MUL SWAP1 PUSH1 0x40 MLOAD PUSH1 0x0 PUSH1 0x40 MLOAD DUP1 DUP4 SUB DUP2 DUP6 DUP9 DUP9 CALL SWAP4 POP POP POP POP ISZERO DUP1 ISZERO PUSH2 0x271 JUMPI RETURNDATASIZE PUSH1 0x0 DUP1 RETURNDATACOPY RETURNDATASIZE PUSH1 0x0 REVERT JUMPDEST POP PUSH1 0x0 PUSH8 0xFFFFFFFFFFFFFFFF DUP2 GT ISZERO PUSH2 0x28D JUMPI PUSH2 0x28C PUSH2 0x9EC JUMP JUMPDEST JUMPDEST PUSH1 0x40 MLOAD SWAP1 DUP1 DUP3 MSTORE DUP1 PUSH1 0x20 MUL PUSH1 0x20 ADD DUP3 ADD PUSH1 0x40 MSTORE DUP1 ISZERO PUSH2 0x2BB JUMPI DUP2 PUSH1 0x20 ADD PUSH1 0x20 DUP3 MUL DUP1 CALLDATASIZE DUP4 CALLDATACOPY DUP1 DUP3 ADD SWAP2 POP POP SWAP1 POP JUMPDEST POP PUSH1 0x1 SWAP1 DUP1 MLOAD SWAP1 PUSH1 0x20 ADD SWAP1 PUSH2 0x2D1 SWAP3 SWAP2 SWAP1 PUSH2 0x659 JUMP JUMPDEST POP POP POP JUMP JUMPDEST PUSH1 0x0 DUP1 SLOAD SWAP1 PUSH2 0x100 EXP SWAP1 DIV PUSH20 0xFFFFFFFFFFFFFFFFFFFFFFFFFFFFFFFFFFFFFFFF AND PUSH20 0xFFFFFFFFFFFFFFFFFFFFFFFFFFFFFFFFFFFFFFFF AND CALLER PUSH20 0xFFFFFFFFFFFFFFFFFFFFFFFFFFFFFFFFFFFFFFFF AND SUB PUSH2 0x364 JUMPI PUSH1 0x40 MLOAD PUSH32 0x8C379A000000000000000000000000000000000000000000000000000000000 DUP2 MSTORE PUSH1 0x4 ADD PUSH2 0x35B SWAP1 PUSH2 0xA67 JUMP JUMPDEST PUSH1 0x40 MLOAD DUP1 SWAP2 SUB SWAP1 REVERT JUMPDEST PUSH1 0x0 ISZERO ISZERO PUSH2 0x370 PUSH2 0x5AD JUMP JUMPDEST ISZERO ISZERO EQ PUSH2 0x3B2 JUMPI PUSH1 0x40 MLOAD PUSH32 0x8C379A000000000000000000000000000000000000000000000000000000000 DUP2 MSTORE PUSH1 0x4 ADD PUSH2 0x3A9 SWAP1 PUSH2 0xAD3 JUMP JUMPDEST PUSH1 0x40 MLOAD DUP1 SWAP2 SUB SWAP1 REVERT JUMPDEST PUSH8 0xDE0B6B3A7640000 CALLVALUE LT ISZERO PUSH2 0x3FD JUMPI PUSH1 0x40 MLOAD PUSH32 0x8C379A000000000000000000000000000000000000000000000000000000000 DUP2 MSTORE PUSH1 0x4 ADD PUSH2 0x3F4 SWAP1 PUSH2 0xB3F JUMP JUMPDEST PUSH1 0x40 MLOAD DUP1 SWAP2 SUB SWAP1 REVERT JUMPDEST PUSH1 0x1 CALLER SWAP1 DUP1 PUSH1 0x1 DUP2 SLOAD ADD DUP1 DUP3 SSTORE DUP1 SWAP2 POP POP PUSH1 0x1 SWAP1 SUB SWAP1 PUSH1 0x0 MSTORE PUSH1 0x20 PUSH1 0x0 KECCAK256 ADD PUSH1 0x0 SWAP1 SWAP2 SWAP1 SWAP2 SWAP1 SWAP2 PUSH2 0x100 EXP DUP2 SLOAD DUP2 PUSH20 0xFFFFFFFFFFFFFFFFFFFFFFFFFFFFFFFFFFFFFFFF MUL NOT AND SWAP1 DUP4 PUSH20 0xFFFFFFFFFFFFFFFFFFFFFFFFFFFFFFFFFFFFFFFF AND MUL OR SWAP1 SSTORE POP JUMP JUMPDEST PUSH1 0x60 PUSH1 0x1 DUP1 SLOAD DUP1 PUSH1 0x20 MUL PUSH1 0x20 ADD PUSH1 0x40 MLOAD SWAP1 DUP2 ADD PUSH1 0x40 MSTORE DUP1 SWAP3 SWAP2 SWAP1 DUP2 DUP2 MSTORE PUSH1 0x20 ADD DUP3 DUP1 SLOAD DUP1 ISZERO PUSH2 0x4E6 JUMPI PUSH1 0x20 MUL DUP3 ADD SWAP2 SWAP1 PUSH1 0x0 MSTORE PUSH1 0x20 PUSH1 0x0 KECCAK256 SWAP1 JUMPDEST DUP2 PUSH1 0x0 SWAP1 SLOAD SWAP1 PUSH2 0x100 EXP SWAP1 DIV PUSH20 0xFFFFFFFFFFFFFFFFFFFFFFFFFFFFFFFFFFFFFFFF AND PUSH20 0xFFFFFFFFFFFFFFFFFFFFFFFFFFFFFFFFFFFFFFFF AND DUP2 MSTORE PUSH1 0x20 ADD SWAP1 PUSH1 0x1 ADD SWAP1 DUP1 DUP4 GT PUSH2 0x49C JUMPI JUMPDEST POP POP POP POP POP SWAP1 POP SWAP1 JUMP JUMPDEST PUSH1 0x1 DUP2 DUP2 SLOAD DUP2 LT PUSH2 0x500 JUMPI PUSH1 0x0 DUP1 REVERT JUMPDEST SWAP1 PUSH1 0x0 MSTORE PUSH1 0x20 PUSH1 0x0 KECCAK256 ADD PUSH1 0x0 SWAP2 POP SLOAD SWAP1 PUSH2 0x100 EXP SWAP1 DIV PUSH20 0xFFFFFFFFFFFFFFFFFFFFFFFFFFFFFFFFFFFFFFFF AND DUP2 JUMP JUMPDEST PUSH1 0x0 PUSH1 0x2 DIFFICULTY NUMBER PUSH1 0x1 PUSH1 0x40 MLOAD PUSH1 0x20 ADD PUSH2 0x549 SWAP4 SWAP3 SWAP2 SWAP1 PUSH2 0xC9E JUMP JUMPDEST PUSH1 0x40 MLOAD PUSH1 0x20 DUP2 DUP4 SUB SUB DUP2 MSTORE SWAP1 PUSH1 0x40 MSTORE PUSH1 0x40 MLOAD PUSH2 0x565 SWAP2 SWAP1 PUSH2 0xD51 JUMP JUMPDEST PUSH1 0x20 PUSH1 0x40 MLOAD DUP1 DUP4 SUB DUP2 DUP6 GAS STATICCALL ISZERO DUP1 ISZERO PUSH2 0x582 JUMPI RETURNDATASIZE PUSH1 0x0 DUP1 RETURNDATACOPY RETURNDATASIZE PUSH1 0x0 REVERT JUMPDEST POP POP POP PUSH1 0x40 MLOAD RETURNDATASIZE PUSH1 0x1F NOT PUSH1 0x1F DUP3 ADD AND DUP3 ADD DUP1 PUSH1 0x40 MSTORE POP DUP2 ADD SWAP1 PUSH2 0x5A5 SWAP2 SWAP1 PUSH2 0xD9E JUMP JUMPDEST PUSH1 0x0 SHR SWAP1 POP SWAP1 JUMP JUMPDEST PUSH1 0x0 DUP1 PUSH1 0x0 SWAP1 POP JUMPDEST PUSH1 0x1 DUP1 SLOAD SWAP1 POP DUP2 LT ISZERO PUSH2 0x650 JUMPI CALLER PUSH20 0xFFFFFFFFFFFFFFFFFFFFFFFFFFFFFFFFFFFFFFFF AND PUSH1 0x1 DUP3 DUP2 SLOAD DUP2 LT PUSH2 0x5ED JUMPI PUSH2 0x5EC PUSH2 0x9BD JUMP JUMPDEST JUMPDEST SWAP1 PUSH1 0x0 MSTORE PUSH1 0x20 PUSH1 0x0 KECCAK256 ADD PUSH1 0x0 SWAP1 SLOAD SWAP1 PUSH2 0x100 EXP SWAP1 DIV PUSH20 0xFFFFFFFFFFFFFFFFFFFFFFFFFFFFFFFFFFFFFFFF AND PUSH20 0xFFFFFFFFFFFFFFFFFFFFFFFFFFFFFFFFFFFFFFFF AND SUB PUSH2 0x63D JUMPI PUSH1 0x1 SWAP2 POP POP PUSH2 0x656 JUMP JUMPDEST DUP1 DUP1 PUSH2 0x648 SWAP1 PUSH2 0xDFA JUMP JUMPDEST SWAP2 POP POP PUSH2 0x5B5 JUMP JUMPDEST POP PUSH1 0x0 SWAP1 POP JUMPDEST SWAP1 JUMP JUMPDEST DUP3 DUP1 SLOAD DUP3 DUP3 SSTORE SWAP1 PUSH1 0x0 MSTORE PUSH1 0x20 PUSH1 0x0 KECCAK256 SWAP1 DUP2 ADD SWAP3 DUP3 ISZERO PUSH2 0x6D2 JUMPI SWAP2 PUSH1 0x20 MUL DUP3 ADD JUMPDEST DUP3 DUP2 GT ISZERO PUSH2 0x6D1 JUMPI DUP3 MLOAD DUP3 PUSH1 0x0 PUSH2 0x100 EXP DUP2 SLOAD DUP2 PUSH20 0xFFFFFFFFFFFFFFFFFFFFFFFFFFFFFFFFFFFFFFFF MUL NOT AND SWAP1 DUP4 PUSH20 0xFFFFFFFFFFFFFFFFFFFFFFFFFFFFFFFFFFFFFFFF AND MUL OR SWAP1 SSTORE POP SWAP2 PUSH1 0x20 ADD SWAP2 SWAP1 PUSH1 0x1 ADD SWAP1 PUSH2 0x679 JUMP JUMPDEST JUMPDEST POP SWAP1 POP PUSH2 0x6DF SWAP2 SWAP1 PUSH2 0x6E3 JUMP JUMPDEST POP SWAP1 JUMP JUMPDEST JUMPDEST DUP1 DUP3 GT ISZERO PUSH2 0x6FC JUMPI PUSH1 0x0 DUP2 PUSH1 0x0 SWAP1 SSTORE POP PUSH1 0x1 ADD PUSH2 0x6E4 JUMP JUMPDEST POP SWAP1 JUMP JUMPDEST PUSH1 0x0 PUSH20 0xFFFFFFFFFFFFFFFFFFFFFFFFFFFFFFFFFFFFFFFF DUP3 AND SWAP1 POP SWAP2 SWAP1 POP JUMP JUMPDEST PUSH1 0x0 PUSH2 0x72B DUP3 PUSH2 0x700 JUMP JUMPDEST SWAP1 POP SWAP2 SWAP1 POP JUMP JUMPDEST PUSH2 0x73B DUP2 PUSH2 0x720 JUMP JUMPDEST DUP3 MSTORE POP POP JUMP JUMPDEST PUSH1 0x0 PUSH1 0x20 DUP3 ADD SWAP1 POP PUSH2 0x756 PUSH1 0x0 DUP4 ADD DUP5 PUSH2 0x732 JUMP JUMPDEST SWAP3 SWAP2 POP POP JUMP JUMPDEST PUSH1 0x0 DUP2 MLOAD SWAP1 POP SWAP2 SWAP1 POP JUMP JUMPDEST PUSH1 0x0 DUP3 DUP3 MSTORE PUSH1 0x20 DUP3 ADD SWAP1 POP SWAP3 SWAP2 POP POP JUMP JUMPDEST PUSH1 0x0 DUP2 SWAP1 POP PUSH1 0x20 DUP3 ADD SWAP1 POP SWAP2 SWAP1 POP JUMP JUMPDEST PUSH1 0x0 PUSH2 0x793 DUP3 PUSH2 0x700 JUMP JUMPDEST SWAP1 POP SWAP2 SWAP1 POP JUMP JUMPDEST PUSH2 0x7A3 DUP2 PUSH2 0x788 JUMP JUMPDEST DUP3 MSTORE POP POP JUMP JUMPDEST PUSH1 0x0 PUSH2 0x7B5 DUP4 DUP4 PUSH2 0x79A JUMP JUMPDEST PUSH1 0x20 DUP4 ADD SWAP1 POP SWAP3 SWAP2 POP POP JUMP JUMPDEST PUSH1 0x0 PUSH1 0x20 DUP3 ADD SWAP1 POP SWAP2 SWAP1 POP JUMP JUMPDEST PUSH1 0x0 PUSH2 0x7D9 DUP3 PUSH2 0x75C JUMP JUMPDEST PUSH2 0x7E3 DUP2 DUP6 PUSH2 0x767 JUMP JUMPDEST SWAP4 POP PUSH2 0x7EE DUP4 PUSH2 0x778 JUMP JUMPDEST DUP1 PUSH1 0x0 JUMPDEST DUP4 DUP2 LT ISZERO PUSH2 0x81F JUMPI DUP2 MLOAD PUSH2 0x806 DUP9 DUP3 PUSH2 0x7A9 JUMP JUMPDEST SWAP8 POP PUSH2 0x811 DUP4 PUSH2 0x7C1 JUMP JUMPDEST SWAP3 POP POP PUSH1 0x1 DUP2 ADD SWAP1 POP PUSH2 0x7F2 JUMP JUMPDEST POP DUP6 SWAP4 POP POP POP POP SWAP3 SWAP2 POP POP JUMP JUMPDEST PUSH1 0x0 PUSH1 0x20 DUP3 ADD SWAP1 POP DUP2 DUP2 SUB PUSH1 0x0 DUP4 ADD MSTORE PUSH2 0x846 DUP2 DUP5 PUSH2 0x7CE JUMP JUMPDEST SWAP1 POP SWAP3 SWAP2 POP POP JUMP JUMPDEST PUSH1 0x0 DUP1 REVERT JUMPDEST PUSH1 0x0 DUP2 SWAP1 POP SWAP2 SWAP1 POP JUMP JUMPDEST PUSH2 0x866 DUP2 PUSH2 0x853 JUMP JUMPDEST DUP2 EQ PUSH2 0x871 JUMPI PUSH1 0x0 DUP1 REVERT JUMPDEST POP JUMP JUMPDEST PUSH1 0x0 DUP2 CALLDATALOAD SWAP1 POP PUSH2 0x883 DUP2 PUSH2 0x85D JUMP JUMPDEST SWAP3 SWAP2 POP POP JUMP JUMPDEST PUSH1 0x0 PUSH1 0x20 DUP3 DUP5 SUB SLT ISZERO PUSH2 0x89F JUMPI PUSH2 0x89E PUSH2 0x84E JUMP JUMPDEST JUMPDEST PUSH1 0x0 PUSH2 0x8AD DUP5 DUP3 DUP6 ADD PUSH2 0x874 JUMP JUMPDEST SWAP2 POP POP SWAP3 SWAP2 POP POP JUMP JUMPDEST PUSH2 0x8BF DUP2 PUSH2 0x788 JUMP JUMPDEST DUP3 MSTORE POP POP JUMP JUMPDEST PUSH1 0x0 PUSH1 0x20 DUP3 ADD SWAP1 POP PUSH2 0x8DA PUSH1 0x0 DUP4 ADD DUP5 PUSH2 0x8B6 JUMP JUMPDEST SWAP3 SWAP2 POP POP JUMP JUMPDEST PUSH1 0x0 DUP3 DUP3 MSTORE PUSH1 0x20 DUP3 ADD SWAP1 POP SWAP3 SWAP2 POP POP JUMP JUMPDEST PUSH32 0x6F6E6C79206D616E616765722063616E207069636B207468652077696E6E6572 PUSH1 0x0 DUP3 ADD MSTORE POP JUMP JUMPDEST PUSH1 0x0 PUSH2 0x927 PUSH1 0x20 DUP4 PUSH2 0x8E0 JUMP JUMPDEST SWAP2 POP PUSH2 0x932 DUP3 PUSH2 0x8F1 JUMP JUMPDEST PUSH1 0x20 DUP3 ADD SWAP1 POP SWAP2 SWAP1 POP JUMP JUMPDEST PUSH1 0x0 PUSH1 0x20 DUP3 ADD SWAP1 POP DUP2 DUP2 SUB PUSH1 0x0 DUP4 ADD MSTORE PUSH2 0x956 DUP2 PUSH2 0x91A JUMP JUMPDEST SWAP1 POP SWAP2 SWAP1 POP JUMP JUMPDEST PUSH32 0x4E487B7100000000000000000000000000000000000000000000000000000000 PUSH1 0x0 MSTORE PUSH1 0x12 PUSH1 0x4 MSTORE PUSH1 0x24 PUSH1 0x0 REVERT JUMPDEST PUSH1 0x0 PUSH2 0x997 DUP3 PUSH2 0x853 JUMP JUMPDEST SWAP2 POP PUSH2 0x9A2 DUP4 PUSH2 0x853 JUMP JUMPDEST SWAP3 POP DUP3 PUSH2 0x9B2 JUMPI PUSH2 0x9B1 PUSH2 0x95D JUMP JUMPDEST JUMPDEST DUP3 DUP3 MOD SWAP1 POP SWAP3 SWAP2 POP POP JUMP JUMPDEST PUSH32 0x4E487B7100000000000000000000000000000000000000000000000000000000 PUSH1 0x0 MSTORE PUSH1 0x32 PUSH1 0x4 MSTORE PUSH1 0x24 PUSH1 0x0 REVERT JUMPDEST PUSH32 0x4E487B7100000000000000000000000000000000000000000000000000000000 PUSH1 0x0 MSTORE PUSH1 0x41 PUSH1 0x4 MSTORE PUSH1 0x24 PUSH1 0x0 REVERT JUMPDEST PUSH32 0x4D616E616765722063616E6E6F7420656E746572000000000000000000000000 PUSH1 0x0 DUP3 ADD MSTORE POP JUMP JUMPDEST PUSH1 0x0 PUSH2 0xA51 PUSH1 0x14 DUP4 PUSH2 0x8E0 JUMP JUMPDEST SWAP2 POP PUSH2 0xA5C DUP3 PUSH2 0xA1B JUMP JUMPDEST PUSH1 0x20 DUP3 ADD SWAP1 POP SWAP2 SWAP1 POP JUMP JUMPDEST PUSH1 0x0 PUSH1 0x20 DUP3 ADD SWAP1 POP DUP2 DUP2 SUB PUSH1 0x0 DUP4 ADD MSTORE PUSH2 0xA80 DUP2 PUSH2 0xA44 JUMP JUMPDEST SWAP1 POP SWAP2 SWAP1 POP JUMP JUMPDEST PUSH32 0x506C6179657220616C726561647920656E746572656400000000000000000000 PUSH1 0x0 DUP3 ADD MSTORE POP JUMP JUMPDEST PUSH1 0x0 PUSH2 0xABD PUSH1 0x16 DUP4 PUSH2 0x8E0 JUMP JUMPDEST SWAP2 POP PUSH2 0xAC8 DUP3 PUSH2 0xA87 JUMP JUMPDEST PUSH1 0x20 DUP3 ADD SWAP1 POP SWAP2 SWAP1 POP JUMP JUMPDEST PUSH1 0x0 PUSH1 0x20 DUP3 ADD SWAP1 POP DUP2 DUP2 SUB PUSH1 0x0 DUP4 ADD MSTORE PUSH2 0xAEC DUP2 PUSH2 0xAB0 JUMP JUMPDEST SWAP1 POP SWAP2 SWAP1 POP JUMP JUMPDEST PUSH32 0x4D696E696D756D206D7573742062652070617965640000000000000000000000 PUSH1 0x0 DUP3 ADD MSTORE POP JUMP JUMPDEST PUSH1 0x0 PUSH2 0xB29 PUSH1 0x15 DUP4 PUSH2 0x8E0 JUMP JUMPDEST SWAP2 POP PUSH2 0xB34 DUP3 PUSH2 0xAF3 JUMP JUMPDEST PUSH1 0x20 DUP3 ADD SWAP1 POP SWAP2 SWAP1 POP JUMP JUMPDEST PUSH1 0x0 PUSH1 0x20 DUP3 ADD SWAP1 POP DUP2 DUP2 SUB PUSH1 0x0 DUP4 ADD MSTORE PUSH2 0xB58 DUP2 PUSH2 0xB1C JUMP JUMPDEST SWAP1 POP SWAP2 SWAP1 POP JUMP JUMPDEST PUSH1 0x0 DUP2 SWAP1 POP SWAP2 SWAP1 POP JUMP JUMPDEST PUSH2 0xB7A PUSH2 0xB75 DUP3 PUSH2 0x853 JUMP JUMPDEST PUSH2 0xB5F JUMP JUMPDEST DUP3 MSTORE POP POP JUMP JUMPDEST PUSH1 0x0 DUP2 SLOAD SWAP1 POP SWAP2 SWAP1 POP JUMP JUMPDEST PUSH1 0x0 DUP2 SWAP1 POP SWAP3 SWAP2 POP POP JUMP JUMPDEST PUSH1 0x0 DUP2 SWAP1 POP DUP2 PUSH1 0x0 MSTORE PUSH1 0x20 PUSH1 0x0 KECCAK256 SWAP1 POP SWAP2 SWAP1 POP JUMP JUMPDEST PUSH2 0xBB4 DUP2 PUSH2 0x788 JUMP JUMPDEST DUP3 MSTORE POP POP JUMP JUMPDEST PUSH1 0x0 PUSH2 0xBC6 DUP4 DUP4 PUSH2 0xBAB JUMP JUMPDEST PUSH1 0x20 DUP4 ADD SWAP1 POP SWAP3 SWAP2 POP POP JUMP JUMPDEST PUSH1 0x0 DUP2 PUSH1 0x0 SHR SWAP1 POP SWAP2 SWAP1 POP JUMP JUMPDEST PUSH1 0x0 PUSH20 0xFFFFFFFFFFFFFFFFFFFFFFFFFFFFFFFFFFFFFFFF DUP3 AND SWAP1 POP SWAP2 SWAP1 POP JUMP JUMPDEST PUSH1 0x0 PUSH2 0xC12 PUSH2 0xC0D DUP4 PUSH2 0xBD2 JUMP JUMPDEST PUSH2 0xBDF JUMP JUMPDEST SWAP1 POP SWAP2 SWAP1 POP JUMP JUMPDEST PUSH1 0x0 PUSH2 0xC25 DUP3 SLOAD PUSH2 0xBFF JUMP JUMPDEST SWAP1 POP SWAP2 SWAP1 POP JUMP JUMPDEST PUSH1 0x0 PUSH1 0x1 DUP3 ADD SWAP1 POP SWAP2 SWAP1 POP JUMP JUMPDEST PUSH1 0x0 PUSH2 0xC44 DUP3 PUSH2 0xB80 JUMP JUMPDEST PUSH2 0xC4E DUP2 DUP6 PUSH2 0xB8B JUMP JUMPDEST SWAP4 POP PUSH2 0xC59 DUP4 PUSH2 0xB96 JUMP JUMPDEST DUP1 PUSH1 0x0 JUMPDEST DUP4 DUP2 LT ISZERO PUSH2 0xC91 JUMPI PUSH2 0xC6E DUP3 PUSH2 0xC19 JUMP JUMPDEST PUSH2 0xC78 DUP9 DUP3 PUSH2 0xBBA JUMP JUMPDEST SWAP8 POP PUSH2 0xC83 DUP4 PUSH2 0xC2C JUMP JUMPDEST SWAP3 POP POP PUSH1 0x1 DUP2 ADD SWAP1 POP PUSH2 0xC5D JUMP JUMPDEST POP DUP6 SWAP4 POP POP POP POP SWAP3 SWAP2 POP POP JUMP JUMPDEST PUSH1 0x0 PUSH2 0xCAA DUP3 DUP7 PUSH2 0xB69 JUMP JUMPDEST PUSH1 0x20 DUP3 ADD SWAP2 POP PUSH2 0xCBA DUP3 DUP6 PUSH2 0xB69 JUMP JUMPDEST PUSH1 0x20 DUP3 ADD SWAP2 POP PUSH2 0xCCA DUP3 DUP5 PUSH2 0xC39 JUMP JUMPDEST SWAP2 POP DUP2 SWAP1 POP SWAP5 SWAP4 POP POP POP POP JUMP JUMPDEST PUSH1 0x0 DUP2 MLOAD SWAP1 POP SWAP2 SWAP1 POP JUMP JUMPDEST PUSH1 0x0 DUP2 SWAP1 POP SWAP3 SWAP2 POP POP JUMP JUMPDEST PUSH1 0x0 JUMPDEST DUP4 DUP2 LT ISZERO PUSH2 0xD0B JUMPI DUP1 DUP3 ADD MLOAD DUP2 DUP5 ADD MSTORE PUSH1 0x20 DUP2 ADD SWAP1 POP PUSH2 0xCF0 JUMP JUMPDEST DUP4 DUP2 GT ISZERO PUSH2 0xD1A JUMPI PUSH1 0x0 DUP5 DUP5 ADD MSTORE JUMPDEST POP POP POP POP JUMP JUMPDEST PUSH1 0x0 PUSH2 0xD2B DUP3 PUSH2 0xCD7 JUMP JUMPDEST PUSH2 0xD35 DUP2 DUP6 PUSH2 0xCE2 JUMP JUMPDEST SWAP4 POP PUSH2 0xD45 DUP2 DUP6 PUSH1 0x20 DUP7 ADD PUSH2 0xCED JUMP JUMPDEST DUP1 DUP5 ADD SWAP2 POP POP SWAP3 SWAP2 POP POP JUMP JUMPDEST PUSH1 0x0 PUSH2 0xD5D DUP3 DUP5 PUSH2 0xD20 JUMP JUMPDEST SWAP2 POP DUP2 SWAP1 POP SWAP3 SWAP2 POP POP JUMP JUMPDEST PUSH1 0x0 DUP2 SWAP1 POP SWAP2 SWAP1 POP JUMP JUMPDEST PUSH2 0xD7B DUP2 PUSH2 0xD68 JUMP JUMPDEST DUP2 EQ PUSH2 0xD86 JUMPI PUSH1 0x0 DUP1 REVERT JUMPDEST POP JUMP JUMPDEST PUSH1 0x0 DUP2 MLOAD SWAP1 POP PUSH2 0xD98 DUP2 PUSH2 0xD72 JUMP JUMPDEST SWAP3 SWAP2 POP POP JUMP JUMPDEST PUSH1 0x0 PUSH1 0x20 DUP3 DUP5 SUB SLT ISZERO PUSH2 0xDB4 JUMPI PUSH2 0xDB3 PUSH2 0x84E JUMP JUMPDEST JUMPDEST PUSH1 0x0 PUSH2 0xDC2 DUP5 DUP3 DUP6 ADD PUSH2 0xD89 JUMP JUMPDEST SWAP2 POP POP SWAP3 SWAP2 POP POP JUMP JUMPDEST PUSH32 0x4E487B7100000000000000000000000000000000000000000000000000000000 PUSH1 0x0 MSTORE PUSH1 0x11 PUSH1 0x4 MSTORE PUSH1 0x24 PUSH1 0x0 REVERT JUMPDEST PUSH1 0x0 PUSH2 0xE05 DUP3 PUSH2 0x853 JUMP JUMPDEST SWAP2 POP PUSH32 0xFFFFFFFFFFFFFFFFFFFFFFFFFFFFFFFFFFFFFFFFFFFFFFFFFFFFFFFFFFFFFFFF DUP3 SUB PUSH2 0xE37 JUMPI PUSH2 0xE36 PUSH2 0xDCB JUMP JUMPDEST JUMPDEST PUSH1 0x1 DUP3 ADD SWAP1 POP SWAP2 SWAP1 POP JUMP INVALID LOG2 PUSH5 0x6970667358 0x22 SLT KECCAK256 0xE2 0xCA 0xD8 CALLVALUE BALANCE PUSH27 0xA0FC4514936EDBA5DC16ABAF3EEA1E32AA1A68AA6CE3FAD5AB8E64 PUSH20 0x6F6C634300080F00330000000000000000000000 "
				},
				"gasEstimates": {
					"creation": {
						"codeDepositCost": "740800",
						"executionCost": "25039",
						"totalCost": "765839"
					},
					"external": {
						"enter()": "infinite",
						"getplayers()": "infinite",
						"manager()": "2489",
						"pickWinner()": "infinite",
						"players(uint256)": "5022"
					},
					"internal": {
						"alreadyEntered()": "infinite",
						"randonumber()": "infinite"
					}
				},
				"methodIdentifiers": {
					"enter()": "e97dcb62",
					"getplayers()": "ecb3db52",
					"manager()": "481c6a75",
					"pickWinner()": "5d495aea",
					"players(uint256)": "f71d96cb"
				}
			},
			"storageLayout": {
				"storage": [
					{
						"astId": 3,
						"contract": "smart contract.sol:lottery",
						"label": "manager",
						"offset": 0,
						"slot": "0",
						"type": "t_address"
					},
					{
						"astId": 6,
						"contract": "smart contract.sol:lottery",
						"label": "players",
						"offset": 0,
						"slot": "1",
						"type": "t_array(t_address_payable)dyn_storage"
					}
				],
				"types": {
					"t_address": {
						"encoding": "inplace",
						"label": "address",
						"numberOfBytes": "20"
					},
					"t_address_payable": {
						"encoding": "inplace",
						"label": "address payable",
						"numberOfBytes": "20"
					},
					"t_array(t_address_payable)dyn_storage": {
						"base": "t_address_payable",
						"encoding": "dynamic_array",
						"label": "address payable[]",
						"numberOfBytes": "32"
					}
				}
			},
			"userdoc": {
				"kind": "user",
				"methods": {},
				"version": 1
			}
		}
	}
}